{
	"contracts/Wallet.sol": {
		"MyWallet": {
			"abi": [
				{
					"inputs": [],
					"stateMutability": "nonpayable",
					"type": "constructor"
				},
				{
					"inputs": [],
					"name": "currentBalance",
					"outputs": [
						{
							"internalType": "uint256",
							"name": "",
							"type": "uint256"
						}
					],
					"stateMutability": "view",
					"type": "function"
				},
				{
					"inputs": [],
					"name": "deposit",
					"outputs": [],
					"stateMutability": "payable",
					"type": "function"
				},
				{
					"inputs": [
						{
							"internalType": "uint256",
							"name": "_amt",
							"type": "uint256"
						}
					],
					"name": "withdraw",
					"outputs": [],
					"stateMutability": "payable",
					"type": "function"
				},
				{
					"inputs": [
						{
							"internalType": "address",
							"name": "_add",
							"type": "address"
						},
						{
							"internalType": "uint256",
							"name": "_amt",
							"type": "uint256"
						}
					],
					"name": "withdrawToAcc",
					"outputs": [],
					"stateMutability": "payable",
					"type": "function"
				}
			],
			"devdoc": {
				"kind": "dev",
				"methods": {},
				"version": 1
			},
			"evm": {
				"assembly": "    /* \"contracts/Wallet.sol\":60:931  contract MyWallet{... */\n  mstore(0x40, 0x80)\n    /* \"contracts/Wallet.sol\":158:208  constructor(){... */\n  callvalue\n  dup1\n  iszero\n  tag_1\n  jumpi\n  0x00\n  dup1\n  revert\ntag_1:\n  pop\n    /* \"contracts/Wallet.sol\":190:200  msg.sender */\n  caller\n    /* \"contracts/Wallet.sol\":182:187  owner */\n  0x01\n  0x00\n    /* \"contracts/Wallet.sol\":182:200  owner = msg.sender */\n  0x0100\n  exp\n  dup2\n  sload\n  dup2\n  0xffffffffffffffffffffffffffffffffffffffff\n  mul\n  not\n  and\n  swap1\n  dup4\n  0xffffffffffffffffffffffffffffffffffffffff\n  and\n  mul\n  or\n  swap1\n  sstore\n  pop\n    /* \"contracts/Wallet.sol\":60:931  contract MyWallet{... */\n  dataSize(sub_0)\n  dup1\n  dataOffset(sub_0)\n  0x00\n  codecopy\n  0x00\n  return\nstop\n\nsub_0: assembly {\n        /* \"contracts/Wallet.sol\":60:931  contract MyWallet{... */\n      mstore(0x40, 0x80)\n      jumpi(tag_1, lt(calldatasize, 0x04))\n      shr(0xe0, calldataload(0x00))\n      dup1\n      0x2e1a7d4d\n      eq\n      tag_2\n      jumpi\n      dup1\n      0x4d6d7811\n      eq\n      tag_3\n      jumpi\n      dup1\n      0xce845d1d\n      eq\n      tag_4\n      jumpi\n      dup1\n      0xd0e30db0\n      eq\n      tag_5\n      jumpi\n    tag_1:\n      0x00\n      dup1\n      revert\n        /* \"contracts/Wallet.sol\":301:603  function withdraw(uint _amt)public payable {... */\n    tag_2:\n      tag_6\n      0x04\n      dup1\n      calldatasize\n      sub\n      dup2\n      add\n      swap1\n      tag_7\n      swap2\n      swap1\n      tag_8\n      jump\t// in\n    tag_7:\n      tag_9\n      jump\t// in\n    tag_6:\n      stop\n        /* \"contracts/Wallet.sol\":611:926  function withdrawToAcc(address _add, uint _amt)public payable {... */\n    tag_3:\n      tag_10\n      0x04\n      dup1\n      calldatasize\n      sub\n      dup2\n      add\n      swap1\n      tag_11\n      swap2\n      swap1\n      tag_12\n      jump\t// in\n    tag_11:\n      tag_13\n      jump\t// in\n    tag_10:\n      stop\n        /* \"contracts/Wallet.sol\":84:110  uint public currentBalance */\n    tag_4:\n      callvalue\n      dup1\n      iszero\n      tag_14\n      jumpi\n      0x00\n      dup1\n      revert\n    tag_14:\n      pop\n      tag_15\n      tag_16\n      jump\t// in\n    tag_15:\n      mload(0x40)\n      tag_17\n      swap2\n      swap1\n      tag_18\n      jump\t// in\n    tag_17:\n      mload(0x40)\n      dup1\n      swap2\n      sub\n      swap1\n      return\n        /* \"contracts/Wallet.sol\":216:295  function deposit() public payable{... */\n    tag_5:\n      tag_19\n      tag_20\n      jump\t// in\n    tag_19:\n      stop\n        /* \"contracts/Wallet.sol\":301:603  function withdraw(uint _amt)public payable {... */\n    tag_9:\n        /* \"contracts/Wallet.sol\":370:375  owner */\n      0x01\n      0x00\n      swap1\n      sload\n      swap1\n      0x0100\n      exp\n      swap1\n      div\n      0xffffffffffffffffffffffffffffffffffffffff\n      and\n        /* \"contracts/Wallet.sol\":358:375  msg.sender==owner */\n      0xffffffffffffffffffffffffffffffffffffffff\n      and\n        /* \"contracts/Wallet.sol\":358:368  msg.sender */\n      caller\n        /* \"contracts/Wallet.sol\":358:375  msg.sender==owner */\n      0xffffffffffffffffffffffffffffffffffffffff\n      and\n      eq\n        /* \"contracts/Wallet.sol\":358:401  msg.sender==owner && _amt <= currentBalance */\n      dup1\n      iszero\n      tag_22\n      jumpi\n      pop\n        /* \"contracts/Wallet.sol\":387:401  currentBalance */\n      sload(0x00)\n        /* \"contracts/Wallet.sol\":379:383  _amt */\n      dup2\n        /* \"contracts/Wallet.sol\":379:401  _amt <= currentBalance */\n      gt\n      iszero\n        /* \"contracts/Wallet.sol\":358:401  msg.sender==owner && _amt <= currentBalance */\n    tag_22:\n        /* \"contracts/Wallet.sol\":355:596  if(msg.sender==owner && _amt <= currentBalance){... */\n      iszero\n      tag_23\n      jumpi\n        /* \"contracts/Wallet.sol\":425:435  msg.sender */\n      caller\n        /* \"contracts/Wallet.sol\":417:445  payable(msg.sender).transfer */\n      0xffffffffffffffffffffffffffffffffffffffff\n      and\n        /* \"contracts/Wallet.sol\":417:456  payable(msg.sender).transfer(msg.value) */\n      0x08fc\n        /* \"contracts/Wallet.sol\":446:455  msg.value */\n      callvalue\n        /* \"contracts/Wallet.sol\":417:456  payable(msg.sender).transfer(msg.value) */\n      swap1\n      dup2\n      iszero\n      mul\n      swap1\n      mload(0x40)\n      0x00\n      mload(0x40)\n      dup1\n      dup4\n      sub\n      dup2\n      dup6\n      dup9\n      dup9\n      call\n      swap4\n      pop\n      pop\n      pop\n      pop\n      iszero\n      dup1\n      iszero\n      tag_25\n      jumpi\n      returndatasize\n      0x00\n      dup1\n      returndatacopy\n      revert(0x00, returndatasize)\n    tag_25:\n      pop\n        /* \"contracts/Wallet.sol\":355:596  if(msg.sender==owner && _amt <= currentBalance){... */\n      jump(tag_26)\n    tag_23:\n        /* \"contracts/Wallet.sol\":484:498  currentBalance */\n      sload(0x00)\n        /* \"contracts/Wallet.sol\":477:481  _amt */\n      dup2\n        /* \"contracts/Wallet.sol\":477:498  _amt > currentBalance */\n      gt\n        /* \"contracts/Wallet.sol\":473:596  if (_amt > currentBalance){... */\n      iszero\n      tag_27\n      jumpi\n        /* \"contracts/Wallet.sol\":514:535  error = \"low balance\" */\n      mload(0x40)\n      dup1\n      0x40\n      add\n      0x40\n      mstore\n      dup1\n      0x0b\n      dup2\n      mstore\n      0x20\n      add\n      0x6c6f772062616c616e6365000000000000000000000000000000000000000000\n      dup2\n      mstore\n      pop\n        /* \"contracts/Wallet.sol\":514:519  error */\n      0x02\n        /* \"contracts/Wallet.sol\":514:535  error = \"low balance\" */\n      swap1\n      dup2\n      tag_28\n      swap2\n      swap1\n      tag_29\n      jump\t// in\n    tag_28:\n      pop\n        /* \"contracts/Wallet.sol\":473:596  if (_amt > currentBalance){... */\n      jump(tag_30)\n    tag_27:\n        /* \"contracts/Wallet.sol\":567:584  error = \"no auth\" */\n      mload(0x40)\n      dup1\n      0x40\n      add\n      0x40\n      mstore\n      dup1\n      0x07\n      dup2\n      mstore\n      0x20\n      add\n      0x6e6f206175746800000000000000000000000000000000000000000000000000\n      dup2\n      mstore\n      pop\n        /* \"contracts/Wallet.sol\":567:572  error */\n      0x02\n        /* \"contracts/Wallet.sol\":567:584  error = \"no auth\" */\n      swap1\n      dup2\n      tag_31\n      swap2\n      swap1\n      tag_29\n      jump\t// in\n    tag_31:\n      pop\n        /* \"contracts/Wallet.sol\":473:596  if (_amt > currentBalance){... */\n    tag_30:\n        /* \"contracts/Wallet.sol\":355:596  if(msg.sender==owner && _amt <= currentBalance){... */\n    tag_26:\n        /* \"contracts/Wallet.sol\":301:603  function withdraw(uint _amt)public payable {... */\n      pop\n      jump\t// out\n        /* \"contracts/Wallet.sol\":611:926  function withdrawToAcc(address _add, uint _amt)public payable {... */\n    tag_13:\n        /* \"contracts/Wallet.sol\":699:704  owner */\n      0x01\n      0x00\n      swap1\n      sload\n      swap1\n      0x0100\n      exp\n      swap1\n      div\n      0xffffffffffffffffffffffffffffffffffffffff\n      and\n        /* \"contracts/Wallet.sol\":687:704  msg.sender==owner */\n      0xffffffffffffffffffffffffffffffffffffffff\n      and\n        /* \"contracts/Wallet.sol\":687:697  msg.sender */\n      caller\n        /* \"contracts/Wallet.sol\":687:704  msg.sender==owner */\n      0xffffffffffffffffffffffffffffffffffffffff\n      and\n      eq\n        /* \"contracts/Wallet.sol\":687:730  msg.sender==owner && _amt <= currentBalance */\n      dup1\n      iszero\n      tag_33\n      jumpi\n      pop\n        /* \"contracts/Wallet.sol\":716:730  currentBalance */\n      sload(0x00)\n        /* \"contracts/Wallet.sol\":708:712  _amt */\n      dup2\n        /* \"contracts/Wallet.sol\":708:730  _amt <= currentBalance */\n      gt\n      iszero\n        /* \"contracts/Wallet.sol\":687:730  msg.sender==owner && _amt <= currentBalance */\n    tag_33:\n        /* \"contracts/Wallet.sol\":684:919  if(msg.sender==owner && _amt <= currentBalance){... */\n      iszero\n      tag_34\n      jumpi\n        /* \"contracts/Wallet.sol\":754:758  _add */\n      dup2\n        /* \"contracts/Wallet.sol\":746:768  payable(_add).transfer */\n      0xffffffffffffffffffffffffffffffffffffffff\n      and\n        /* \"contracts/Wallet.sol\":746:779  payable(_add).transfer(msg.value) */\n      0x08fc\n        /* \"contracts/Wallet.sol\":769:778  msg.value */\n      callvalue\n        /* \"contracts/Wallet.sol\":746:779  payable(_add).transfer(msg.value) */\n      swap1\n      dup2\n      iszero\n      mul\n      swap1\n      mload(0x40)\n      0x00\n      mload(0x40)\n      dup1\n      dup4\n      sub\n      dup2\n      dup6\n      dup9\n      dup9\n      call\n      swap4\n      pop\n      pop\n      pop\n      pop\n      iszero\n      dup1\n      iszero\n      tag_36\n      jumpi\n      returndatasize\n      0x00\n      dup1\n      returndatacopy\n      revert(0x00, returndatasize)\n    tag_36:\n      pop\n        /* \"contracts/Wallet.sol\":684:919  if(msg.sender==owner && _amt <= currentBalance){... */\n      jump(tag_37)\n    tag_34:\n        /* \"contracts/Wallet.sol\":807:821  currentBalance */\n      sload(0x00)\n        /* \"contracts/Wallet.sol\":800:804  _amt */\n      dup2\n        /* \"contracts/Wallet.sol\":800:821  _amt > currentBalance */\n      gt\n        /* \"contracts/Wallet.sol\":796:919  if (_amt > currentBalance){... */\n      iszero\n      tag_38\n      jumpi\n        /* \"contracts/Wallet.sol\":837:858  error = \"low balance\" */\n      mload(0x40)\n      dup1\n      0x40\n      add\n      0x40\n      mstore\n      dup1\n      0x0b\n      dup2\n      mstore\n      0x20\n      add\n      0x6c6f772062616c616e6365000000000000000000000000000000000000000000\n      dup2\n      mstore\n      pop\n        /* \"contracts/Wallet.sol\":837:842  error */\n      0x02\n        /* \"contracts/Wallet.sol\":837:858  error = \"low balance\" */\n      swap1\n      dup2\n      tag_39\n      swap2\n      swap1\n      tag_29\n      jump\t// in\n    tag_39:\n      pop\n        /* \"contracts/Wallet.sol\":796:919  if (_amt > currentBalance){... */\n      jump(tag_40)\n    tag_38:\n        /* \"contracts/Wallet.sol\":890:907  error = \"no auth\" */\n      mload(0x40)\n      dup1\n      0x40\n      add\n      0x40\n      mstore\n      dup1\n      0x07\n      dup2\n      mstore\n      0x20\n      add\n      0x6e6f206175746800000000000000000000000000000000000000000000000000\n      dup2\n      mstore\n      pop\n        /* \"contracts/Wallet.sol\":890:895  error */\n      0x02\n        /* \"contracts/Wallet.sol\":890:907  error = \"no auth\" */\n      swap1\n      dup2\n      tag_41\n      swap2\n      swap1\n      tag_29\n      jump\t// in\n    tag_41:\n      pop\n        /* \"contracts/Wallet.sol\":796:919  if (_amt > currentBalance){... */\n    tag_40:\n        /* \"contracts/Wallet.sol\":684:919  if(msg.sender==owner && _amt <= currentBalance){... */\n    tag_37:\n        /* \"contracts/Wallet.sol\":611:926  function withdrawToAcc(address _add, uint _amt)public payable {... */\n      pop\n      pop\n      jump\t// out\n        /* \"contracts/Wallet.sol\":84:110  uint public currentBalance */\n    tag_16:\n      sload(0x00)\n      dup2\n      jump\t// out\n        /* \"contracts/Wallet.sol\":216:295  function deposit() public payable{... */\n    tag_20:\n        /* \"contracts/Wallet.sol\":278:287  msg.value */\n      callvalue\n        /* \"contracts/Wallet.sol\":260:274  currentBalance */\n      0x00\n      dup1\n        /* \"contracts/Wallet.sol\":260:287  currentBalance += msg.value */\n      dup3\n      dup3\n      sload\n      tag_43\n      swap2\n      swap1\n      tag_44\n      jump\t// in\n    tag_43:\n      swap3\n      pop\n      pop\n      dup2\n      swap1\n      sstore\n      pop\n        /* \"contracts/Wallet.sol\":216:295  function deposit() public payable{... */\n      jump\t// out\n        /* \"#utility.yul\":88:205   */\n    tag_46:\n        /* \"#utility.yul\":197:198   */\n      0x00\n        /* \"#utility.yul\":194:195   */\n      dup1\n        /* \"#utility.yul\":187:199   */\n      revert\n        /* \"#utility.yul\":334:411   */\n    tag_48:\n        /* \"#utility.yul\":371:378   */\n      0x00\n        /* \"#utility.yul\":400:405   */\n      dup2\n        /* \"#utility.yul\":389:405   */\n      swap1\n      pop\n        /* \"#utility.yul\":334:411   */\n      swap2\n      swap1\n      pop\n      jump\t// out\n        /* \"#utility.yul\":417:539   */\n    tag_49:\n        /* \"#utility.yul\":490:514   */\n      tag_82\n        /* \"#utility.yul\":508:513   */\n      dup2\n        /* \"#utility.yul\":490:514   */\n      tag_48\n      jump\t// in\n    tag_82:\n        /* \"#utility.yul\":483:488   */\n      dup2\n        /* \"#utility.yul\":480:515   */\n      eq\n        /* \"#utility.yul\":470:533   */\n      tag_83\n      jumpi\n        /* \"#utility.yul\":529:530   */\n      0x00\n        /* \"#utility.yul\":526:527   */\n      dup1\n        /* \"#utility.yul\":519:531   */\n      revert\n        /* \"#utility.yul\":470:533   */\n    tag_83:\n        /* \"#utility.yul\":417:539   */\n      pop\n      jump\t// out\n        /* \"#utility.yul\":545:684   */\n    tag_50:\n        /* \"#utility.yul\":591:596   */\n      0x00\n        /* \"#utility.yul\":629:635   */\n      dup2\n        /* \"#utility.yul\":616:636   */\n      calldataload\n        /* \"#utility.yul\":607:636   */\n      swap1\n      pop\n        /* \"#utility.yul\":645:678   */\n      tag_85\n        /* \"#utility.yul\":672:677   */\n      dup2\n        /* \"#utility.yul\":645:678   */\n      tag_49\n      jump\t// in\n    tag_85:\n        /* \"#utility.yul\":545:684   */\n      swap3\n      swap2\n      pop\n      pop\n      jump\t// out\n        /* \"#utility.yul\":690:1019   */\n    tag_8:\n        /* \"#utility.yul\":749:755   */\n      0x00\n        /* \"#utility.yul\":798:800   */\n      0x20\n        /* \"#utility.yul\":786:795   */\n      dup3\n        /* \"#utility.yul\":777:784   */\n      dup5\n        /* \"#utility.yul\":773:796   */\n      sub\n        /* \"#utility.yul\":769:801   */\n      slt\n        /* \"#utility.yul\":766:885   */\n      iszero\n      tag_87\n      jumpi\n        /* \"#utility.yul\":804:883   */\n      tag_88\n      tag_46\n      jump\t// in\n    tag_88:\n        /* \"#utility.yul\":766:885   */\n    tag_87:\n        /* \"#utility.yul\":924:925   */\n      0x00\n        /* \"#utility.yul\":949:1002   */\n      tag_89\n        /* \"#utility.yul\":994:1001   */\n      dup5\n        /* \"#utility.yul\":985:991   */\n      dup3\n        /* \"#utility.yul\":974:983   */\n      dup6\n        /* \"#utility.yul\":970:992   */\n      add\n        /* \"#utility.yul\":949:1002   */\n      tag_50\n      jump\t// in\n    tag_89:\n        /* \"#utility.yul\":939:1002   */\n      swap2\n      pop\n        /* \"#utility.yul\":895:1012   */\n      pop\n        /* \"#utility.yul\":690:1019   */\n      swap3\n      swap2\n      pop\n      pop\n      jump\t// out\n        /* \"#utility.yul\":1025:1151   */\n    tag_51:\n        /* \"#utility.yul\":1062:1069   */\n      0x00\n        /* \"#utility.yul\":1102:1144   */\n      0xffffffffffffffffffffffffffffffffffffffff\n        /* \"#utility.yul\":1095:1100   */\n      dup3\n        /* \"#utility.yul\":1091:1145   */\n      and\n        /* \"#utility.yul\":1080:1145   */\n      swap1\n      pop\n        /* \"#utility.yul\":1025:1151   */\n      swap2\n      swap1\n      pop\n      jump\t// out\n        /* \"#utility.yul\":1157:1253   */\n    tag_52:\n        /* \"#utility.yul\":1194:1201   */\n      0x00\n        /* \"#utility.yul\":1223:1247   */\n      tag_92\n        /* \"#utility.yul\":1241:1246   */\n      dup3\n        /* \"#utility.yul\":1223:1247   */\n      tag_51\n      jump\t// in\n    tag_92:\n        /* \"#utility.yul\":1212:1247   */\n      swap1\n      pop\n        /* \"#utility.yul\":1157:1253   */\n      swap2\n      swap1\n      pop\n      jump\t// out\n        /* \"#utility.yul\":1259:1381   */\n    tag_53:\n        /* \"#utility.yul\":1332:1356   */\n      tag_94\n        /* \"#utility.yul\":1350:1355   */\n      dup2\n        /* \"#utility.yul\":1332:1356   */\n      tag_52\n      jump\t// in\n    tag_94:\n        /* \"#utility.yul\":1325:1330   */\n      dup2\n        /* \"#utility.yul\":1322:1357   */\n      eq\n        /* \"#utility.yul\":1312:1375   */\n      tag_95\n      jumpi\n        /* \"#utility.yul\":1371:1372   */\n      0x00\n        /* \"#utility.yul\":1368:1369   */\n      dup1\n        /* \"#utility.yul\":1361:1373   */\n      revert\n        /* \"#utility.yul\":1312:1375   */\n    tag_95:\n        /* \"#utility.yul\":1259:1381   */\n      pop\n      jump\t// out\n        /* \"#utility.yul\":1387:1526   */\n    tag_54:\n        /* \"#utility.yul\":1433:1438   */\n      0x00\n        /* \"#utility.yul\":1471:1477   */\n      dup2\n        /* \"#utility.yul\":1458:1478   */\n      calldataload\n        /* \"#utility.yul\":1449:1478   */\n      swap1\n      pop\n        /* \"#utility.yul\":1487:1520   */\n      tag_97\n        /* \"#utility.yul\":1514:1519   */\n      dup2\n        /* \"#utility.yul\":1487:1520   */\n      tag_53\n      jump\t// in\n    tag_97:\n        /* \"#utility.yul\":1387:1526   */\n      swap3\n      swap2\n      pop\n      pop\n      jump\t// out\n        /* \"#utility.yul\":1532:2006   */\n    tag_12:\n        /* \"#utility.yul\":1600:1606   */\n      0x00\n        /* \"#utility.yul\":1608:1614   */\n      dup1\n        /* \"#utility.yul\":1657:1659   */\n      0x40\n        /* \"#utility.yul\":1645:1654   */\n      dup4\n        /* \"#utility.yul\":1636:1643   */\n      dup6\n        /* \"#utility.yul\":1632:1655   */\n      sub\n        /* \"#utility.yul\":1628:1660   */\n      slt\n        /* \"#utility.yul\":1625:1744   */\n      iszero\n      tag_99\n      jumpi\n        /* \"#utility.yul\":1663:1742   */\n      tag_100\n      tag_46\n      jump\t// in\n    tag_100:\n        /* \"#utility.yul\":1625:1744   */\n    tag_99:\n        /* \"#utility.yul\":1783:1784   */\n      0x00\n        /* \"#utility.yul\":1808:1861   */\n      tag_101\n        /* \"#utility.yul\":1853:1860   */\n      dup6\n        /* \"#utility.yul\":1844:1850   */\n      dup3\n        /* \"#utility.yul\":1833:1842   */\n      dup7\n        /* \"#utility.yul\":1829:1851   */\n      add\n        /* \"#utility.yul\":1808:1861   */\n      tag_54\n      jump\t// in\n    tag_101:\n        /* \"#utility.yul\":1798:1861   */\n      swap3\n      pop\n        /* \"#utility.yul\":1754:1871   */\n      pop\n        /* \"#utility.yul\":1910:1912   */\n      0x20\n        /* \"#utility.yul\":1936:1989   */\n      tag_102\n        /* \"#utility.yul\":1981:1988   */\n      dup6\n        /* \"#utility.yul\":1972:1978   */\n      dup3\n        /* \"#utility.yul\":1961:1970   */\n      dup7\n        /* \"#utility.yul\":1957:1979   */\n      add\n        /* \"#utility.yul\":1936:1989   */\n      tag_50\n      jump\t// in\n    tag_102:\n        /* \"#utility.yul\":1926:1989   */\n      swap2\n      pop\n        /* \"#utility.yul\":1881:1999   */\n      pop\n        /* \"#utility.yul\":1532:2006   */\n      swap3\n      pop\n      swap3\n      swap1\n      pop\n      jump\t// out\n        /* \"#utility.yul\":2012:2130   */\n    tag_55:\n        /* \"#utility.yul\":2099:2123   */\n      tag_104\n        /* \"#utility.yul\":2117:2122   */\n      dup2\n        /* \"#utility.yul\":2099:2123   */\n      tag_48\n      jump\t// in\n    tag_104:\n        /* \"#utility.yul\":2094:2097   */\n      dup3\n        /* \"#utility.yul\":2087:2124   */\n      mstore\n        /* \"#utility.yul\":2012:2130   */\n      pop\n      pop\n      jump\t// out\n        /* \"#utility.yul\":2136:2358   */\n    tag_18:\n        /* \"#utility.yul\":2229:2233   */\n      0x00\n        /* \"#utility.yul\":2267:2269   */\n      0x20\n        /* \"#utility.yul\":2256:2265   */\n      dup3\n        /* \"#utility.yul\":2252:2270   */\n      add\n        /* \"#utility.yul\":2244:2270   */\n      swap1\n      pop\n        /* \"#utility.yul\":2280:2351   */\n      tag_106\n        /* \"#utility.yul\":2348:2349   */\n      0x00\n        /* \"#utility.yul\":2337:2346   */\n      dup4\n        /* \"#utility.yul\":2333:2350   */\n      add\n        /* \"#utility.yul\":2324:2330   */\n      dup5\n        /* \"#utility.yul\":2280:2351   */\n      tag_55\n      jump\t// in\n    tag_106:\n        /* \"#utility.yul\":2136:2358   */\n      swap3\n      swap2\n      pop\n      pop\n      jump\t// out\n        /* \"#utility.yul\":2364:2463   */\n    tag_56:\n        /* \"#utility.yul\":2416:2422   */\n      0x00\n        /* \"#utility.yul\":2450:2455   */\n      dup2\n        /* \"#utility.yul\":2444:2456   */\n      mload\n        /* \"#utility.yul\":2434:2456   */\n      swap1\n      pop\n        /* \"#utility.yul\":2364:2463   */\n      swap2\n      swap1\n      pop\n      jump\t// out\n        /* \"#utility.yul\":2469:2649   */\n    tag_57:\n        /* \"#utility.yul\":2517:2594   */\n      0x4e487b7100000000000000000000000000000000000000000000000000000000\n        /* \"#utility.yul\":2514:2515   */\n      0x00\n        /* \"#utility.yul\":2507:2595   */\n      mstore\n        /* \"#utility.yul\":2614:2618   */\n      0x41\n        /* \"#utility.yul\":2611:2612   */\n      0x04\n        /* \"#utility.yul\":2604:2619   */\n      mstore\n        /* \"#utility.yul\":2638:2642   */\n      0x24\n        /* \"#utility.yul\":2635:2636   */\n      0x00\n        /* \"#utility.yul\":2628:2643   */\n      revert\n        /* \"#utility.yul\":2655:2835   */\n    tag_58:\n        /* \"#utility.yul\":2703:2780   */\n      0x4e487b7100000000000000000000000000000000000000000000000000000000\n        /* \"#utility.yul\":2700:2701   */\n      0x00\n        /* \"#utility.yul\":2693:2781   */\n      mstore\n        /* \"#utility.yul\":2800:2804   */\n      0x22\n        /* \"#utility.yul\":2797:2798   */\n      0x04\n        /* \"#utility.yul\":2790:2805   */\n      mstore\n        /* \"#utility.yul\":2824:2828   */\n      0x24\n        /* \"#utility.yul\":2821:2822   */\n      0x00\n        /* \"#utility.yul\":2814:2829   */\n      revert\n        /* \"#utility.yul\":2841:3161   */\n    tag_59:\n        /* \"#utility.yul\":2885:2891   */\n      0x00\n        /* \"#utility.yul\":2922:2923   */\n      0x02\n        /* \"#utility.yul\":2916:2920   */\n      dup3\n        /* \"#utility.yul\":2912:2924   */\n      div\n        /* \"#utility.yul\":2902:2924   */\n      swap1\n      pop\n        /* \"#utility.yul\":2969:2970   */\n      0x01\n        /* \"#utility.yul\":2963:2967   */\n      dup3\n        /* \"#utility.yul\":2959:2971   */\n      and\n        /* \"#utility.yul\":2990:3008   */\n      dup1\n        /* \"#utility.yul\":2980:3061   */\n      tag_111\n      jumpi\n        /* \"#utility.yul\":3046:3050   */\n      0x7f\n        /* \"#utility.yul\":3038:3044   */\n      dup3\n        /* \"#utility.yul\":3034:3051   */\n      and\n        /* \"#utility.yul\":3024:3051   */\n      swap2\n      pop\n        /* \"#utility.yul\":2980:3061   */\n    tag_111:\n        /* \"#utility.yul\":3108:3110   */\n      0x20\n        /* \"#utility.yul\":3100:3106   */\n      dup3\n        /* \"#utility.yul\":3097:3111   */\n      lt\n        /* \"#utility.yul\":3077:3095   */\n      dup2\n        /* \"#utility.yul\":3074:3112   */\n      sub\n        /* \"#utility.yul\":3071:3155   */\n      tag_112\n      jumpi\n        /* \"#utility.yul\":3127:3145   */\n      tag_113\n      tag_58\n      jump\t// in\n    tag_113:\n        /* \"#utility.yul\":3071:3155   */\n    tag_112:\n        /* \"#utility.yul\":2892:3161   */\n      pop\n        /* \"#utility.yul\":2841:3161   */\n      swap2\n      swap1\n      pop\n      jump\t// out\n        /* \"#utility.yul\":3167:3308   */\n    tag_60:\n        /* \"#utility.yul\":3216:3220   */\n      0x00\n        /* \"#utility.yul\":3239:3242   */\n      dup2\n        /* \"#utility.yul\":3231:3242   */\n      swap1\n      pop\n        /* \"#utility.yul\":3262:3265   */\n      dup2\n        /* \"#utility.yul\":3259:3260   */\n      0x00\n        /* \"#utility.yul\":3252:3266   */\n      mstore\n        /* \"#utility.yul\":3296:3300   */\n      0x20\n        /* \"#utility.yul\":3293:3294   */\n      0x00\n        /* \"#utility.yul\":3283:3301   */\n      keccak256\n        /* \"#utility.yul\":3275:3301   */\n      swap1\n      pop\n        /* \"#utility.yul\":3167:3308   */\n      swap2\n      swap1\n      pop\n      jump\t// out\n        /* \"#utility.yul\":3314:3407   */\n    tag_61:\n        /* \"#utility.yul\":3351:3357   */\n      0x00\n        /* \"#utility.yul\":3398:3400   */\n      0x20\n        /* \"#utility.yul\":3393:3395   */\n      0x1f\n        /* \"#utility.yul\":3386:3391   */\n      dup4\n        /* \"#utility.yul\":3382:3396   */\n      add\n        /* \"#utility.yul\":3378:3401   */\n      div\n        /* \"#utility.yul\":3368:3401   */\n      swap1\n      pop\n        /* \"#utility.yul\":3314:3407   */\n      swap2\n      swap1\n      pop\n      jump\t// out\n        /* \"#utility.yul\":3413:3520   */\n    tag_62:\n        /* \"#utility.yul\":3457:3465   */\n      0x00\n        /* \"#utility.yul\":3507:3512   */\n      dup3\n        /* \"#utility.yul\":3501:3505   */\n      dup3\n        /* \"#utility.yul\":3497:3513   */\n      shl\n        /* \"#utility.yul\":3476:3513   */\n      swap1\n      pop\n        /* \"#utility.yul\":3413:3520   */\n      swap3\n      swap2\n      pop\n      pop\n      jump\t// out\n        /* \"#utility.yul\":3526:3919   */\n    tag_63:\n        /* \"#utility.yul\":3595:3601   */\n      0x00\n        /* \"#utility.yul\":3645:3646   */\n      0x08\n        /* \"#utility.yul\":3633:3643   */\n      dup4\n        /* \"#utility.yul\":3629:3647   */\n      mul\n        /* \"#utility.yul\":3668:3765   */\n      tag_118\n        /* \"#utility.yul\":3698:3764   */\n      0xffffffffffffffffffffffffffffffffffffffffffffffffffffffffffffffff\n        /* \"#utility.yul\":3687:3696   */\n      dup3\n        /* \"#utility.yul\":3668:3765   */\n      tag_62\n      jump\t// in\n    tag_118:\n        /* \"#utility.yul\":3786:3825   */\n      tag_119\n        /* \"#utility.yul\":3816:3824   */\n      dup7\n        /* \"#utility.yul\":3805:3814   */\n      dup4\n        /* \"#utility.yul\":3786:3825   */\n      tag_62\n      jump\t// in\n    tag_119:\n        /* \"#utility.yul\":3774:3825   */\n      swap6\n      pop\n        /* \"#utility.yul\":3858:3862   */\n      dup1\n        /* \"#utility.yul\":3854:3863   */\n      not\n        /* \"#utility.yul\":3847:3852   */\n      dup5\n        /* \"#utility.yul\":3843:3864   */\n      and\n        /* \"#utility.yul\":3834:3864   */\n      swap4\n      pop\n        /* \"#utility.yul\":3907:3911   */\n      dup1\n        /* \"#utility.yul\":3897:3905   */\n      dup7\n        /* \"#utility.yul\":3893:3912   */\n      and\n        /* \"#utility.yul\":3886:3891   */\n      dup5\n        /* \"#utility.yul\":3883:3913   */\n      or\n        /* \"#utility.yul\":3873:3913   */\n      swap3\n      pop\n        /* \"#utility.yul\":3602:3919   */\n      pop\n      pop\n        /* \"#utility.yul\":3526:3919   */\n      swap4\n      swap3\n      pop\n      pop\n      pop\n      jump\t// out\n        /* \"#utility.yul\":3925:3985   */\n    tag_64:\n        /* \"#utility.yul\":3953:3956   */\n      0x00\n        /* \"#utility.yul\":3974:3979   */\n      dup2\n        /* \"#utility.yul\":3967:3979   */\n      swap1\n      pop\n        /* \"#utility.yul\":3925:3985   */\n      swap2\n      swap1\n      pop\n      jump\t// out\n        /* \"#utility.yul\":3991:4133   */\n    tag_65:\n        /* \"#utility.yul\":4041:4050   */\n      0x00\n        /* \"#utility.yul\":4074:4127   */\n      tag_122\n        /* \"#utility.yul\":4092:4126   */\n      tag_123\n        /* \"#utility.yul\":4101:4125   */\n      tag_124\n        /* \"#utility.yul\":4119:4124   */\n      dup5\n        /* \"#utility.yul\":4101:4125   */\n      tag_48\n      jump\t// in\n    tag_124:\n        /* \"#utility.yul\":4092:4126   */\n      tag_64\n      jump\t// in\n    tag_123:\n        /* \"#utility.yul\":4074:4127   */\n      tag_48\n      jump\t// in\n    tag_122:\n        /* \"#utility.yul\":4061:4127   */\n      swap1\n      pop\n        /* \"#utility.yul\":3991:4133   */\n      swap2\n      swap1\n      pop\n      jump\t// out\n        /* \"#utility.yul\":4139:4214   */\n    tag_66:\n        /* \"#utility.yul\":4182:4185   */\n      0x00\n        /* \"#utility.yul\":4203:4208   */\n      dup2\n        /* \"#utility.yul\":4196:4208   */\n      swap1\n      pop\n        /* \"#utility.yul\":4139:4214   */\n      swap2\n      swap1\n      pop\n      jump\t// out\n        /* \"#utility.yul\":4220:4489   */\n    tag_67:\n        /* \"#utility.yul\":4330:4369   */\n      tag_127\n        /* \"#utility.yul\":4361:4368   */\n      dup4\n        /* \"#utility.yul\":4330:4369   */\n      tag_65\n      jump\t// in\n    tag_127:\n        /* \"#utility.yul\":4391:4482   */\n      tag_128\n        /* \"#utility.yul\":4440:4481   */\n      tag_129\n        /* \"#utility.yul\":4464:4480   */\n      dup3\n        /* \"#utility.yul\":4440:4481   */\n      tag_66\n      jump\t// in\n    tag_129:\n        /* \"#utility.yul\":4432:4438   */\n      dup5\n        /* \"#utility.yul\":4425:4429   */\n      dup5\n        /* \"#utility.yul\":4419:4430   */\n      sload\n        /* \"#utility.yul\":4391:4482   */\n      tag_63\n      jump\t// in\n    tag_128:\n        /* \"#utility.yul\":4385:4389   */\n      dup3\n        /* \"#utility.yul\":4378:4483   */\n      sstore\n        /* \"#utility.yul\":4296:4489   */\n      pop\n        /* \"#utility.yul\":4220:4489   */\n      pop\n      pop\n      pop\n      jump\t// out\n        /* \"#utility.yul\":4495:4568   */\n    tag_68:\n        /* \"#utility.yul\":4540:4543   */\n      0x00\n        /* \"#utility.yul\":4495:4568   */\n      swap1\n      jump\t// out\n        /* \"#utility.yul\":4574:4763   */\n    tag_69:\n        /* \"#utility.yul\":4651:4683   */\n      tag_132\n      tag_68\n      jump\t// in\n    tag_132:\n        /* \"#utility.yul\":4692:4757   */\n      tag_133\n        /* \"#utility.yul\":4750:4756   */\n      dup2\n        /* \"#utility.yul\":4742:4748   */\n      dup5\n        /* \"#utility.yul\":4736:4740   */\n      dup5\n        /* \"#utility.yul\":4692:4757   */\n      tag_67\n      jump\t// in\n    tag_133:\n        /* \"#utility.yul\":4627:4763   */\n      pop\n        /* \"#utility.yul\":4574:4763   */\n      pop\n      pop\n      jump\t// out\n        /* \"#utility.yul\":4769:4955   */\n    tag_70:\n        /* \"#utility.yul\":4829:4949   */\n    tag_135:\n        /* \"#utility.yul\":4846:4849   */\n      dup2\n        /* \"#utility.yul\":4839:4844   */\n      dup2\n        /* \"#utility.yul\":4836:4850   */\n      lt\n        /* \"#utility.yul\":4829:4949   */\n      iszero\n      tag_137\n      jumpi\n        /* \"#utility.yul\":4900:4939   */\n      tag_138\n        /* \"#utility.yul\":4937:4938   */\n      0x00\n        /* \"#utility.yul\":4930:4935   */\n      dup3\n        /* \"#utility.yul\":4900:4939   */\n      tag_69\n      jump\t// in\n    tag_138:\n        /* \"#utility.yul\":4873:4874   */\n      0x01\n        /* \"#utility.yul\":4866:4871   */\n      dup2\n        /* \"#utility.yul\":4862:4875   */\n      add\n        /* \"#utility.yul\":4853:4875   */\n      swap1\n      pop\n        /* \"#utility.yul\":4829:4949   */\n      jump(tag_135)\n    tag_137:\n        /* \"#utility.yul\":4769:4955   */\n      pop\n      pop\n      jump\t// out\n        /* \"#utility.yul\":4961:5504   */\n    tag_71:\n        /* \"#utility.yul\":5062:5064   */\n      0x1f\n        /* \"#utility.yul\":5057:5060   */\n      dup3\n        /* \"#utility.yul\":5054:5065   */\n      gt\n        /* \"#utility.yul\":5051:5497   */\n      iszero\n      tag_140\n      jumpi\n        /* \"#utility.yul\":5096:5134   */\n      tag_141\n        /* \"#utility.yul\":5128:5133   */\n      dup2\n        /* \"#utility.yul\":5096:5134   */\n      tag_60\n      jump\t// in\n    tag_141:\n        /* \"#utility.yul\":5180:5209   */\n      tag_142\n        /* \"#utility.yul\":5198:5208   */\n      dup5\n        /* \"#utility.yul\":5180:5209   */\n      tag_61\n      jump\t// in\n    tag_142:\n        /* \"#utility.yul\":5170:5178   */\n      dup2\n        /* \"#utility.yul\":5166:5210   */\n      add\n        /* \"#utility.yul\":5363:5365   */\n      0x20\n        /* \"#utility.yul\":5351:5361   */\n      dup6\n        /* \"#utility.yul\":5348:5366   */\n      lt\n        /* \"#utility.yul\":5345:5394   */\n      iszero\n      tag_143\n      jumpi\n        /* \"#utility.yul\":5384:5392   */\n      dup2\n        /* \"#utility.yul\":5369:5392   */\n      swap1\n      pop\n        /* \"#utility.yul\":5345:5394   */\n    tag_143:\n        /* \"#utility.yul\":5407:5487   */\n      tag_144\n        /* \"#utility.yul\":5463:5485   */\n      tag_145\n        /* \"#utility.yul\":5481:5484   */\n      dup6\n        /* \"#utility.yul\":5463:5485   */\n      tag_61\n      jump\t// in\n    tag_145:\n        /* \"#utility.yul\":5453:5461   */\n      dup4\n        /* \"#utility.yul\":5449:5486   */\n      add\n        /* \"#utility.yul\":5436:5447   */\n      dup3\n        /* \"#utility.yul\":5407:5487   */\n      tag_70\n      jump\t// in\n    tag_144:\n        /* \"#utility.yul\":5066:5497   */\n      pop\n      pop\n        /* \"#utility.yul\":5051:5497   */\n    tag_140:\n        /* \"#utility.yul\":4961:5504   */\n      pop\n      pop\n      pop\n      jump\t// out\n        /* \"#utility.yul\":5510:5627   */\n    tag_72:\n        /* \"#utility.yul\":5564:5572   */\n      0x00\n        /* \"#utility.yul\":5614:5619   */\n      dup3\n        /* \"#utility.yul\":5608:5612   */\n      dup3\n        /* \"#utility.yul\":5604:5620   */\n      shr\n        /* \"#utility.yul\":5583:5620   */\n      swap1\n      pop\n        /* \"#utility.yul\":5510:5627   */\n      swap3\n      swap2\n      pop\n      pop\n      jump\t// out\n        /* \"#utility.yul\":5633:5802   */\n    tag_73:\n        /* \"#utility.yul\":5677:5683   */\n      0x00\n        /* \"#utility.yul\":5710:5761   */\n      tag_148\n        /* \"#utility.yul\":5758:5759   */\n      0x00\n        /* \"#utility.yul\":5754:5760   */\n      not\n        /* \"#utility.yul\":5746:5751   */\n      dup5\n        /* \"#utility.yul\":5743:5744   */\n      0x08\n        /* \"#utility.yul\":5739:5752   */\n      mul\n        /* \"#utility.yul\":5710:5761   */\n      tag_72\n      jump\t// in\n    tag_148:\n        /* \"#utility.yul\":5706:5762   */\n      not\n        /* \"#utility.yul\":5791:5795   */\n      dup1\n        /* \"#utility.yul\":5785:5789   */\n      dup4\n        /* \"#utility.yul\":5781:5796   */\n      and\n        /* \"#utility.yul\":5771:5796   */\n      swap2\n      pop\n        /* \"#utility.yul\":5684:5802   */\n      pop\n        /* \"#utility.yul\":5633:5802   */\n      swap3\n      swap2\n      pop\n      pop\n      jump\t// out\n        /* \"#utility.yul\":5807:6102   */\n    tag_74:\n        /* \"#utility.yul\":5883:5887   */\n      0x00\n        /* \"#utility.yul\":6029:6058   */\n      tag_150\n        /* \"#utility.yul\":6054:6057   */\n      dup4\n        /* \"#utility.yul\":6048:6052   */\n      dup4\n        /* \"#utility.yul\":6029:6058   */\n      tag_73\n      jump\t// in\n    tag_150:\n        /* \"#utility.yul\":6021:6058   */\n      swap2\n      pop\n        /* \"#utility.yul\":6091:6094   */\n      dup3\n        /* \"#utility.yul\":6088:6089   */\n      0x02\n        /* \"#utility.yul\":6084:6095   */\n      mul\n        /* \"#utility.yul\":6078:6082   */\n      dup3\n        /* \"#utility.yul\":6075:6096   */\n      or\n        /* \"#utility.yul\":6067:6096   */\n      swap1\n      pop\n        /* \"#utility.yul\":5807:6102   */\n      swap3\n      swap2\n      pop\n      pop\n      jump\t// out\n        /* \"#utility.yul\":6107:7502   */\n    tag_29:\n        /* \"#utility.yul\":6224:6261   */\n      tag_152\n        /* \"#utility.yul\":6257:6260   */\n      dup3\n        /* \"#utility.yul\":6224:6261   */\n      tag_56\n      jump\t// in\n    tag_152:\n        /* \"#utility.yul\":6326:6344   */\n      0xffffffffffffffff\n        /* \"#utility.yul\":6318:6324   */\n      dup2\n        /* \"#utility.yul\":6315:6345   */\n      gt\n        /* \"#utility.yul\":6312:6368   */\n      iszero\n      tag_153\n      jumpi\n        /* \"#utility.yul\":6348:6366   */\n      tag_154\n      tag_57\n      jump\t// in\n    tag_154:\n        /* \"#utility.yul\":6312:6368   */\n    tag_153:\n        /* \"#utility.yul\":6392:6430   */\n      tag_155\n        /* \"#utility.yul\":6424:6428   */\n      dup3\n        /* \"#utility.yul\":6418:6429   */\n      sload\n        /* \"#utility.yul\":6392:6430   */\n      tag_59\n      jump\t// in\n    tag_155:\n        /* \"#utility.yul\":6477:6544   */\n      tag_156\n        /* \"#utility.yul\":6537:6543   */\n      dup3\n        /* \"#utility.yul\":6529:6535   */\n      dup3\n        /* \"#utility.yul\":6523:6527   */\n      dup6\n        /* \"#utility.yul\":6477:6544   */\n      tag_71\n      jump\t// in\n    tag_156:\n        /* \"#utility.yul\":6571:6572   */\n      0x00\n        /* \"#utility.yul\":6595:6599   */\n      0x20\n        /* \"#utility.yul\":6582:6599   */\n      swap1\n      pop\n        /* \"#utility.yul\":6627:6629   */\n      0x1f\n        /* \"#utility.yul\":6619:6625   */\n      dup4\n        /* \"#utility.yul\":6616:6630   */\n      gt\n        /* \"#utility.yul\":6644:6645   */\n      0x01\n        /* \"#utility.yul\":6639:7257   */\n      dup2\n      eq\n      tag_158\n      jumpi\n        /* \"#utility.yul\":7301:7302   */\n      0x00\n        /* \"#utility.yul\":7318:7324   */\n      dup5\n        /* \"#utility.yul\":7315:7392   */\n      iszero\n      tag_159\n      jumpi\n        /* \"#utility.yul\":7367:7376   */\n      dup3\n        /* \"#utility.yul\":7362:7365   */\n      dup8\n        /* \"#utility.yul\":7358:7377   */\n      add\n        /* \"#utility.yul\":7352:7378   */\n      mload\n        /* \"#utility.yul\":7343:7378   */\n      swap1\n      pop\n        /* \"#utility.yul\":7315:7392   */\n    tag_159:\n        /* \"#utility.yul\":7418:7485   */\n      tag_160\n        /* \"#utility.yul\":7478:7484   */\n      dup6\n        /* \"#utility.yul\":7471:7476   */\n      dup3\n        /* \"#utility.yul\":7418:7485   */\n      tag_74\n      jump\t// in\n    tag_160:\n        /* \"#utility.yul\":7412:7416   */\n      dup7\n        /* \"#utility.yul\":7405:7486   */\n      sstore\n        /* \"#utility.yul\":7274:7496   */\n      pop\n        /* \"#utility.yul\":6609:7496   */\n      jump(tag_157)\n        /* \"#utility.yul\":6639:7257   */\n    tag_158:\n        /* \"#utility.yul\":6691:6695   */\n      0x1f\n        /* \"#utility.yul\":6687:6696   */\n      not\n        /* \"#utility.yul\":6679:6685   */\n      dup5\n        /* \"#utility.yul\":6675:6697   */\n      and\n        /* \"#utility.yul\":6725:6762   */\n      tag_161\n        /* \"#utility.yul\":6757:6761   */\n      dup7\n        /* \"#utility.yul\":6725:6762   */\n      tag_60\n      jump\t// in\n    tag_161:\n        /* \"#utility.yul\":6784:6785   */\n      0x00\n        /* \"#utility.yul\":6798:7006   */\n    tag_162:\n        /* \"#utility.yul\":6812:6819   */\n      dup3\n        /* \"#utility.yul\":6809:6810   */\n      dup2\n        /* \"#utility.yul\":6806:6820   */\n      lt\n        /* \"#utility.yul\":6798:7006   */\n      iszero\n      tag_164\n      jumpi\n        /* \"#utility.yul\":6891:6900   */\n      dup5\n        /* \"#utility.yul\":6886:6889   */\n      dup10\n        /* \"#utility.yul\":6882:6901   */\n      add\n        /* \"#utility.yul\":6876:6902   */\n      mload\n        /* \"#utility.yul\":6868:6874   */\n      dup3\n        /* \"#utility.yul\":6861:6903   */\n      sstore\n        /* \"#utility.yul\":6942:6943   */\n      0x01\n        /* \"#utility.yul\":6934:6940   */\n      dup3\n        /* \"#utility.yul\":6930:6944   */\n      add\n        /* \"#utility.yul\":6920:6944   */\n      swap2\n      pop\n        /* \"#utility.yul\":6989:6991   */\n      0x20\n        /* \"#utility.yul\":6978:6987   */\n      dup6\n        /* \"#utility.yul\":6974:6992   */\n      add\n        /* \"#utility.yul\":6961:6992   */\n      swap5\n      pop\n        /* \"#utility.yul\":6835:6839   */\n      0x20\n        /* \"#utility.yul\":6832:6833   */\n      dup2\n        /* \"#utility.yul\":6828:6840   */\n      add\n        /* \"#utility.yul\":6823:6840   */\n      swap1\n      pop\n        /* \"#utility.yul\":6798:7006   */\n      jump(tag_162)\n    tag_164:\n        /* \"#utility.yul\":7034:7040   */\n      dup7\n        /* \"#utility.yul\":7025:7032   */\n      dup4\n        /* \"#utility.yul\":7022:7041   */\n      lt\n        /* \"#utility.yul\":7019:7198   */\n      iszero\n      tag_165\n      jumpi\n        /* \"#utility.yul\":7092:7101   */\n      dup5\n        /* \"#utility.yul\":7087:7090   */\n      dup10\n        /* \"#utility.yul\":7083:7102   */\n      add\n        /* \"#utility.yul\":7077:7103   */\n      mload\n        /* \"#utility.yul\":7135:7183   */\n      tag_166\n        /* \"#utility.yul\":7177:7181   */\n      0x1f\n        /* \"#utility.yul\":7169:7175   */\n      dup10\n        /* \"#utility.yul\":7165:7182   */\n      and\n        /* \"#utility.yul\":7154:7163   */\n      dup3\n        /* \"#utility.yul\":7135:7183   */\n      tag_73\n      jump\t// in\n    tag_166:\n        /* \"#utility.yul\":7127:7133   */\n      dup4\n        /* \"#utility.yul\":7120:7184   */\n      sstore\n        /* \"#utility.yul\":7042:7198   */\n      pop\n        /* \"#utility.yul\":7019:7198   */\n    tag_165:\n        /* \"#utility.yul\":7244:7245   */\n      0x01\n        /* \"#utility.yul\":7240:7241   */\n      0x02\n        /* \"#utility.yul\":7232:7238   */\n      dup9\n        /* \"#utility.yul\":7228:7242   */\n      mul\n        /* \"#utility.yul\":7224:7246   */\n      add\n        /* \"#utility.yul\":7218:7222   */\n      dup9\n        /* \"#utility.yul\":7211:7247   */\n      sstore\n        /* \"#utility.yul\":6646:7257   */\n      pop\n      pop\n      pop\n        /* \"#utility.yul\":6609:7496   */\n    tag_157:\n      pop\n        /* \"#utility.yul\":6199:7502   */\n      pop\n      pop\n      pop\n        /* \"#utility.yul\":6107:7502   */\n      pop\n      pop\n      jump\t// out\n        /* \"#utility.yul\":7508:7688   */\n    tag_75:\n        /* \"#utility.yul\":7556:7633   */\n      0x4e487b7100000000000000000000000000000000000000000000000000000000\n        /* \"#utility.yul\":7553:7554   */\n      0x00\n        /* \"#utility.yul\":7546:7634   */\n      mstore\n        /* \"#utility.yul\":7653:7657   */\n      0x11\n        /* \"#utility.yul\":7650:7651   */\n      0x04\n        /* \"#utility.yul\":7643:7658   */\n      mstore\n        /* \"#utility.yul\":7677:7681   */\n      0x24\n        /* \"#utility.yul\":7674:7675   */\n      0x00\n        /* \"#utility.yul\":7667:7682   */\n      revert\n        /* \"#utility.yul\":7694:7885   */\n    tag_44:\n        /* \"#utility.yul\":7734:7737   */\n      0x00\n        /* \"#utility.yul\":7753:7773   */\n      tag_169\n        /* \"#utility.yul\":7771:7772   */\n      dup3\n        /* \"#utility.yul\":7753:7773   */\n      tag_48\n      jump\t// in\n    tag_169:\n        /* \"#utility.yul\":7748:7773   */\n      swap2\n      pop\n        /* \"#utility.yul\":7787:7807   */\n      tag_170\n        /* \"#utility.yul\":7805:7806   */\n      dup4\n        /* \"#utility.yul\":7787:7807   */\n      tag_48\n      jump\t// in\n    tag_170:\n        /* \"#utility.yul\":7782:7807   */\n      swap3\n      pop\n        /* \"#utility.yul\":7830:7831   */\n      dup3\n        /* \"#utility.yul\":7827:7828   */\n      dup3\n        /* \"#utility.yul\":7823:7832   */\n      add\n        /* \"#utility.yul\":7816:7832   */\n      swap1\n      pop\n        /* \"#utility.yul\":7851:7854   */\n      dup1\n        /* \"#utility.yul\":7848:7849   */\n      dup3\n        /* \"#utility.yul\":7845:7855   */\n      gt\n        /* \"#utility.yul\":7842:7878   */\n      iszero\n      tag_171\n      jumpi\n        /* \"#utility.yul\":7858:7876   */\n      tag_172\n      tag_75\n      jump\t// in\n    tag_172:\n        /* \"#utility.yul\":7842:7878   */\n    tag_171:\n        /* \"#utility.yul\":7694:7885   */\n      swap3\n      swap2\n      pop\n      pop\n      jump\t// out\n\n    auxdata: 0xa264697066735822122051a111e2490e39a321bfb9eceb85f3e8aef128135bfad6bd33daeaba2d5af41864736f6c634300081a0033\n}\n",
				"bytecode": {
					"linkReferences": {},
					"object": "6080604052348015600e575f80fd5b503360015f6101000a81548173ffffffffffffffffffffffffffffffffffffffff021916908373ffffffffffffffffffffffffffffffffffffffff1602179055506108158061005c5f395ff3fe60806040526004361061003e575f3560e01c80632e1a7d4d146100425780634d6d78111461005e578063ce845d1d1461007a578063d0e30db0146100a4575b5f80fd5b61005c60048036038101906100579190610394565b6100ae565b005b61007860048036038101906100739190610419565b6101f6565b005b348015610085575f80fd5b5061008e61033f565b60405161009b9190610466565b60405180910390f35b6100ac610344565b005b60015f9054906101000a900473ffffffffffffffffffffffffffffffffffffffff1673ffffffffffffffffffffffffffffffffffffffff163373ffffffffffffffffffffffffffffffffffffffff1614801561010b57505f548111155b15610159573373ffffffffffffffffffffffffffffffffffffffff166108fc3490811502906040515f60405180830381858888f19350505050158015610153573d5f803e3d5ffd5b506101f3565b5f548111156101ac576040518060400160405280600b81526020017f6c6f772062616c616e6365000000000000000000000000000000000000000000815250600290816101a691906106b0565b506101f2565b6040518060400160405280600781526020017f6e6f206175746800000000000000000000000000000000000000000000000000815250600290816101f091906106b0565b505b5b50565b60015f9054906101000a900473ffffffffffffffffffffffffffffffffffffffff1673ffffffffffffffffffffffffffffffffffffffff163373ffffffffffffffffffffffffffffffffffffffff1614801561025357505f548111155b156102a1578173ffffffffffffffffffffffffffffffffffffffff166108fc3490811502906040515f60405180830381858888f1935050505015801561029b573d5f803e3d5ffd5b5061033b565b5f548111156102f4576040518060400160405280600b81526020017f6c6f772062616c616e6365000000000000000000000000000000000000000000815250600290816102ee91906106b0565b5061033a565b6040518060400160405280600781526020017f6e6f2061757468000000000000000000000000000000000000000000000000008152506002908161033891906106b0565b505b5b5050565b5f5481565b345f8082825461035491906107ac565b92505081905550565b5f80fd5b5f819050919050565b61037381610361565b811461037d575f80fd5b50565b5f8135905061038e8161036a565b92915050565b5f602082840312156103a9576103a861035d565b5b5f6103b684828501610380565b91505092915050565b5f73ffffffffffffffffffffffffffffffffffffffff82169050919050565b5f6103e8826103bf565b9050919050565b6103f8816103de565b8114610402575f80fd5b50565b5f81359050610413816103ef565b92915050565b5f806040838503121561042f5761042e61035d565b5b5f61043c85828601610405565b925050602061044d85828601610380565b9150509250929050565b61046081610361565b82525050565b5f6020820190506104795f830184610457565b92915050565b5f81519050919050565b7f4e487b71000000000000000000000000000000000000000000000000000000005f52604160045260245ffd5b7f4e487b71000000000000000000000000000000000000000000000000000000005f52602260045260245ffd5b5f60028204905060018216806104fa57607f821691505b60208210810361050d5761050c6104b6565b5b50919050565b5f819050815f5260205f209050919050565b5f6020601f8301049050919050565b5f82821b905092915050565b5f6008830261056f7fffffffffffffffffffffffffffffffffffffffffffffffffffffffffffffffff82610534565b6105798683610534565b95508019841693508086168417925050509392505050565b5f819050919050565b5f6105b46105af6105aa84610361565b610591565b610361565b9050919050565b5f819050919050565b6105cd8361059a565b6105e16105d9826105bb565b848454610540565b825550505050565b5f90565b6105f56105e9565b6106008184846105c4565b505050565b5b81811015610623576106185f826105ed565b600181019050610606565b5050565b601f8211156106685761063981610513565b61064284610525565b81016020851015610651578190505b61066561065d85610525565b830182610605565b50505b505050565b5f82821c905092915050565b5f6106885f198460080261066d565b1980831691505092915050565b5f6106a08383610679565b9150826002028217905092915050565b6106b98261047f565b67ffffffffffffffff8111156106d2576106d1610489565b5b6106dc82546104e3565b6106e7828285610627565b5f60209050601f831160018114610718575f8415610706578287015190505b6107108582610695565b865550610777565b601f19841661072686610513565b5f5b8281101561074d57848901518255600182019150602085019450602081019050610728565b8683101561076a5784890151610766601f891682610679565b8355505b6001600288020188555050505b505050505050565b7f4e487b71000000000000000000000000000000000000000000000000000000005f52601160045260245ffd5b5f6107b682610361565b91506107c183610361565b92508282019050808211156107d9576107d861077f565b5b9291505056fea264697066735822122051a111e2490e39a321bfb9eceb85f3e8aef128135bfad6bd33daeaba2d5af41864736f6c634300081a0033",
					"opcodes": "PUSH1 0x80 PUSH1 0x40 MSTORE CALLVALUE DUP1 ISZERO PUSH1 0xE JUMPI PUSH0 DUP1 REVERT JUMPDEST POP CALLER PUSH1 0x1 PUSH0 PUSH2 0x100 EXP DUP2 SLOAD DUP2 PUSH20 0xFFFFFFFFFFFFFFFFFFFFFFFFFFFFFFFFFFFFFFFF MUL NOT AND SWAP1 DUP4 PUSH20 0xFFFFFFFFFFFFFFFFFFFFFFFFFFFFFFFFFFFFFFFF AND MUL OR SWAP1 SSTORE POP PUSH2 0x815 DUP1 PUSH2 0x5C PUSH0 CODECOPY PUSH0 RETURN INVALID PUSH1 0x80 PUSH1 0x40 MSTORE PUSH1 0x4 CALLDATASIZE LT PUSH2 0x3E JUMPI PUSH0 CALLDATALOAD PUSH1 0xE0 SHR DUP1 PUSH4 0x2E1A7D4D EQ PUSH2 0x42 JUMPI DUP1 PUSH4 0x4D6D7811 EQ PUSH2 0x5E JUMPI DUP1 PUSH4 0xCE845D1D EQ PUSH2 0x7A JUMPI DUP1 PUSH4 0xD0E30DB0 EQ PUSH2 0xA4 JUMPI JUMPDEST PUSH0 DUP1 REVERT JUMPDEST PUSH2 0x5C PUSH1 0x4 DUP1 CALLDATASIZE SUB DUP2 ADD SWAP1 PUSH2 0x57 SWAP2 SWAP1 PUSH2 0x394 JUMP JUMPDEST PUSH2 0xAE JUMP JUMPDEST STOP JUMPDEST PUSH2 0x78 PUSH1 0x4 DUP1 CALLDATASIZE SUB DUP2 ADD SWAP1 PUSH2 0x73 SWAP2 SWAP1 PUSH2 0x419 JUMP JUMPDEST PUSH2 0x1F6 JUMP JUMPDEST STOP JUMPDEST CALLVALUE DUP1 ISZERO PUSH2 0x85 JUMPI PUSH0 DUP1 REVERT JUMPDEST POP PUSH2 0x8E PUSH2 0x33F JUMP JUMPDEST PUSH1 0x40 MLOAD PUSH2 0x9B SWAP2 SWAP1 PUSH2 0x466 JUMP JUMPDEST PUSH1 0x40 MLOAD DUP1 SWAP2 SUB SWAP1 RETURN JUMPDEST PUSH2 0xAC PUSH2 0x344 JUMP JUMPDEST STOP JUMPDEST PUSH1 0x1 PUSH0 SWAP1 SLOAD SWAP1 PUSH2 0x100 EXP SWAP1 DIV PUSH20 0xFFFFFFFFFFFFFFFFFFFFFFFFFFFFFFFFFFFFFFFF AND PUSH20 0xFFFFFFFFFFFFFFFFFFFFFFFFFFFFFFFFFFFFFFFF AND CALLER PUSH20 0xFFFFFFFFFFFFFFFFFFFFFFFFFFFFFFFFFFFFFFFF AND EQ DUP1 ISZERO PUSH2 0x10B JUMPI POP PUSH0 SLOAD DUP2 GT ISZERO JUMPDEST ISZERO PUSH2 0x159 JUMPI CALLER PUSH20 0xFFFFFFFFFFFFFFFFFFFFFFFFFFFFFFFFFFFFFFFF AND PUSH2 0x8FC CALLVALUE SWAP1 DUP2 ISZERO MUL SWAP1 PUSH1 0x40 MLOAD PUSH0 PUSH1 0x40 MLOAD DUP1 DUP4 SUB DUP2 DUP6 DUP9 DUP9 CALL SWAP4 POP POP POP POP ISZERO DUP1 ISZERO PUSH2 0x153 JUMPI RETURNDATASIZE PUSH0 DUP1 RETURNDATACOPY RETURNDATASIZE PUSH0 REVERT JUMPDEST POP PUSH2 0x1F3 JUMP JUMPDEST PUSH0 SLOAD DUP2 GT ISZERO PUSH2 0x1AC JUMPI PUSH1 0x40 MLOAD DUP1 PUSH1 0x40 ADD PUSH1 0x40 MSTORE DUP1 PUSH1 0xB DUP2 MSTORE PUSH1 0x20 ADD PUSH32 0x6C6F772062616C616E6365000000000000000000000000000000000000000000 DUP2 MSTORE POP PUSH1 0x2 SWAP1 DUP2 PUSH2 0x1A6 SWAP2 SWAP1 PUSH2 0x6B0 JUMP JUMPDEST POP PUSH2 0x1F2 JUMP JUMPDEST PUSH1 0x40 MLOAD DUP1 PUSH1 0x40 ADD PUSH1 0x40 MSTORE DUP1 PUSH1 0x7 DUP2 MSTORE PUSH1 0x20 ADD PUSH32 0x6E6F206175746800000000000000000000000000000000000000000000000000 DUP2 MSTORE POP PUSH1 0x2 SWAP1 DUP2 PUSH2 0x1F0 SWAP2 SWAP1 PUSH2 0x6B0 JUMP JUMPDEST POP JUMPDEST JUMPDEST POP JUMP JUMPDEST PUSH1 0x1 PUSH0 SWAP1 SLOAD SWAP1 PUSH2 0x100 EXP SWAP1 DIV PUSH20 0xFFFFFFFFFFFFFFFFFFFFFFFFFFFFFFFFFFFFFFFF AND PUSH20 0xFFFFFFFFFFFFFFFFFFFFFFFFFFFFFFFFFFFFFFFF AND CALLER PUSH20 0xFFFFFFFFFFFFFFFFFFFFFFFFFFFFFFFFFFFFFFFF AND EQ DUP1 ISZERO PUSH2 0x253 JUMPI POP PUSH0 SLOAD DUP2 GT ISZERO JUMPDEST ISZERO PUSH2 0x2A1 JUMPI DUP2 PUSH20 0xFFFFFFFFFFFFFFFFFFFFFFFFFFFFFFFFFFFFFFFF AND PUSH2 0x8FC CALLVALUE SWAP1 DUP2 ISZERO MUL SWAP1 PUSH1 0x40 MLOAD PUSH0 PUSH1 0x40 MLOAD DUP1 DUP4 SUB DUP2 DUP6 DUP9 DUP9 CALL SWAP4 POP POP POP POP ISZERO DUP1 ISZERO PUSH2 0x29B JUMPI RETURNDATASIZE PUSH0 DUP1 RETURNDATACOPY RETURNDATASIZE PUSH0 REVERT JUMPDEST POP PUSH2 0x33B JUMP JUMPDEST PUSH0 SLOAD DUP2 GT ISZERO PUSH2 0x2F4 JUMPI PUSH1 0x40 MLOAD DUP1 PUSH1 0x40 ADD PUSH1 0x40 MSTORE DUP1 PUSH1 0xB DUP2 MSTORE PUSH1 0x20 ADD PUSH32 0x6C6F772062616C616E6365000000000000000000000000000000000000000000 DUP2 MSTORE POP PUSH1 0x2 SWAP1 DUP2 PUSH2 0x2EE SWAP2 SWAP1 PUSH2 0x6B0 JUMP JUMPDEST POP PUSH2 0x33A JUMP JUMPDEST PUSH1 0x40 MLOAD DUP1 PUSH1 0x40 ADD PUSH1 0x40 MSTORE DUP1 PUSH1 0x7 DUP2 MSTORE PUSH1 0x20 ADD PUSH32 0x6E6F206175746800000000000000000000000000000000000000000000000000 DUP2 MSTORE POP PUSH1 0x2 SWAP1 DUP2 PUSH2 0x338 SWAP2 SWAP1 PUSH2 0x6B0 JUMP JUMPDEST POP JUMPDEST JUMPDEST POP POP JUMP JUMPDEST PUSH0 SLOAD DUP2 JUMP JUMPDEST CALLVALUE PUSH0 DUP1 DUP3 DUP3 SLOAD PUSH2 0x354 SWAP2 SWAP1 PUSH2 0x7AC JUMP JUMPDEST SWAP3 POP POP DUP2 SWAP1 SSTORE POP JUMP JUMPDEST PUSH0 DUP1 REVERT JUMPDEST PUSH0 DUP2 SWAP1 POP SWAP2 SWAP1 POP JUMP JUMPDEST PUSH2 0x373 DUP2 PUSH2 0x361 JUMP JUMPDEST DUP2 EQ PUSH2 0x37D JUMPI PUSH0 DUP1 REVERT JUMPDEST POP JUMP JUMPDEST PUSH0 DUP2 CALLDATALOAD SWAP1 POP PUSH2 0x38E DUP2 PUSH2 0x36A JUMP JUMPDEST SWAP3 SWAP2 POP POP JUMP JUMPDEST PUSH0 PUSH1 0x20 DUP3 DUP5 SUB SLT ISZERO PUSH2 0x3A9 JUMPI PUSH2 0x3A8 PUSH2 0x35D JUMP JUMPDEST JUMPDEST PUSH0 PUSH2 0x3B6 DUP5 DUP3 DUP6 ADD PUSH2 0x380 JUMP JUMPDEST SWAP2 POP POP SWAP3 SWAP2 POP POP JUMP JUMPDEST PUSH0 PUSH20 0xFFFFFFFFFFFFFFFFFFFFFFFFFFFFFFFFFFFFFFFF DUP3 AND SWAP1 POP SWAP2 SWAP1 POP JUMP JUMPDEST PUSH0 PUSH2 0x3E8 DUP3 PUSH2 0x3BF JUMP JUMPDEST SWAP1 POP SWAP2 SWAP1 POP JUMP JUMPDEST PUSH2 0x3F8 DUP2 PUSH2 0x3DE JUMP JUMPDEST DUP2 EQ PUSH2 0x402 JUMPI PUSH0 DUP1 REVERT JUMPDEST POP JUMP JUMPDEST PUSH0 DUP2 CALLDATALOAD SWAP1 POP PUSH2 0x413 DUP2 PUSH2 0x3EF JUMP JUMPDEST SWAP3 SWAP2 POP POP JUMP JUMPDEST PUSH0 DUP1 PUSH1 0x40 DUP4 DUP6 SUB SLT ISZERO PUSH2 0x42F JUMPI PUSH2 0x42E PUSH2 0x35D JUMP JUMPDEST JUMPDEST PUSH0 PUSH2 0x43C DUP6 DUP3 DUP7 ADD PUSH2 0x405 JUMP JUMPDEST SWAP3 POP POP PUSH1 0x20 PUSH2 0x44D DUP6 DUP3 DUP7 ADD PUSH2 0x380 JUMP JUMPDEST SWAP2 POP POP SWAP3 POP SWAP3 SWAP1 POP JUMP JUMPDEST PUSH2 0x460 DUP2 PUSH2 0x361 JUMP JUMPDEST DUP3 MSTORE POP POP JUMP JUMPDEST PUSH0 PUSH1 0x20 DUP3 ADD SWAP1 POP PUSH2 0x479 PUSH0 DUP4 ADD DUP5 PUSH2 0x457 JUMP JUMPDEST SWAP3 SWAP2 POP POP JUMP JUMPDEST PUSH0 DUP2 MLOAD SWAP1 POP SWAP2 SWAP1 POP JUMP JUMPDEST PUSH32 0x4E487B7100000000000000000000000000000000000000000000000000000000 PUSH0 MSTORE PUSH1 0x41 PUSH1 0x4 MSTORE PUSH1 0x24 PUSH0 REVERT JUMPDEST PUSH32 0x4E487B7100000000000000000000000000000000000000000000000000000000 PUSH0 MSTORE PUSH1 0x22 PUSH1 0x4 MSTORE PUSH1 0x24 PUSH0 REVERT JUMPDEST PUSH0 PUSH1 0x2 DUP3 DIV SWAP1 POP PUSH1 0x1 DUP3 AND DUP1 PUSH2 0x4FA JUMPI PUSH1 0x7F DUP3 AND SWAP2 POP JUMPDEST PUSH1 0x20 DUP3 LT DUP2 SUB PUSH2 0x50D JUMPI PUSH2 0x50C PUSH2 0x4B6 JUMP JUMPDEST JUMPDEST POP SWAP2 SWAP1 POP JUMP JUMPDEST PUSH0 DUP2 SWAP1 POP DUP2 PUSH0 MSTORE PUSH1 0x20 PUSH0 KECCAK256 SWAP1 POP SWAP2 SWAP1 POP JUMP JUMPDEST PUSH0 PUSH1 0x20 PUSH1 0x1F DUP4 ADD DIV SWAP1 POP SWAP2 SWAP1 POP JUMP JUMPDEST PUSH0 DUP3 DUP3 SHL SWAP1 POP SWAP3 SWAP2 POP POP JUMP JUMPDEST PUSH0 PUSH1 0x8 DUP4 MUL PUSH2 0x56F PUSH32 0xFFFFFFFFFFFFFFFFFFFFFFFFFFFFFFFFFFFFFFFFFFFFFFFFFFFFFFFFFFFFFFFF DUP3 PUSH2 0x534 JUMP JUMPDEST PUSH2 0x579 DUP7 DUP4 PUSH2 0x534 JUMP JUMPDEST SWAP6 POP DUP1 NOT DUP5 AND SWAP4 POP DUP1 DUP7 AND DUP5 OR SWAP3 POP POP POP SWAP4 SWAP3 POP POP POP JUMP JUMPDEST PUSH0 DUP2 SWAP1 POP SWAP2 SWAP1 POP JUMP JUMPDEST PUSH0 PUSH2 0x5B4 PUSH2 0x5AF PUSH2 0x5AA DUP5 PUSH2 0x361 JUMP JUMPDEST PUSH2 0x591 JUMP JUMPDEST PUSH2 0x361 JUMP JUMPDEST SWAP1 POP SWAP2 SWAP1 POP JUMP JUMPDEST PUSH0 DUP2 SWAP1 POP SWAP2 SWAP1 POP JUMP JUMPDEST PUSH2 0x5CD DUP4 PUSH2 0x59A JUMP JUMPDEST PUSH2 0x5E1 PUSH2 0x5D9 DUP3 PUSH2 0x5BB JUMP JUMPDEST DUP5 DUP5 SLOAD PUSH2 0x540 JUMP JUMPDEST DUP3 SSTORE POP POP POP POP JUMP JUMPDEST PUSH0 SWAP1 JUMP JUMPDEST PUSH2 0x5F5 PUSH2 0x5E9 JUMP JUMPDEST PUSH2 0x600 DUP2 DUP5 DUP5 PUSH2 0x5C4 JUMP JUMPDEST POP POP POP JUMP JUMPDEST JUMPDEST DUP2 DUP2 LT ISZERO PUSH2 0x623 JUMPI PUSH2 0x618 PUSH0 DUP3 PUSH2 0x5ED JUMP JUMPDEST PUSH1 0x1 DUP2 ADD SWAP1 POP PUSH2 0x606 JUMP JUMPDEST POP POP JUMP JUMPDEST PUSH1 0x1F DUP3 GT ISZERO PUSH2 0x668 JUMPI PUSH2 0x639 DUP2 PUSH2 0x513 JUMP JUMPDEST PUSH2 0x642 DUP5 PUSH2 0x525 JUMP JUMPDEST DUP2 ADD PUSH1 0x20 DUP6 LT ISZERO PUSH2 0x651 JUMPI DUP2 SWAP1 POP JUMPDEST PUSH2 0x665 PUSH2 0x65D DUP6 PUSH2 0x525 JUMP JUMPDEST DUP4 ADD DUP3 PUSH2 0x605 JUMP JUMPDEST POP POP JUMPDEST POP POP POP JUMP JUMPDEST PUSH0 DUP3 DUP3 SHR SWAP1 POP SWAP3 SWAP2 POP POP JUMP JUMPDEST PUSH0 PUSH2 0x688 PUSH0 NOT DUP5 PUSH1 0x8 MUL PUSH2 0x66D JUMP JUMPDEST NOT DUP1 DUP4 AND SWAP2 POP POP SWAP3 SWAP2 POP POP JUMP JUMPDEST PUSH0 PUSH2 0x6A0 DUP4 DUP4 PUSH2 0x679 JUMP JUMPDEST SWAP2 POP DUP3 PUSH1 0x2 MUL DUP3 OR SWAP1 POP SWAP3 SWAP2 POP POP JUMP JUMPDEST PUSH2 0x6B9 DUP3 PUSH2 0x47F JUMP JUMPDEST PUSH8 0xFFFFFFFFFFFFFFFF DUP2 GT ISZERO PUSH2 0x6D2 JUMPI PUSH2 0x6D1 PUSH2 0x489 JUMP JUMPDEST JUMPDEST PUSH2 0x6DC DUP3 SLOAD PUSH2 0x4E3 JUMP JUMPDEST PUSH2 0x6E7 DUP3 DUP3 DUP6 PUSH2 0x627 JUMP JUMPDEST PUSH0 PUSH1 0x20 SWAP1 POP PUSH1 0x1F DUP4 GT PUSH1 0x1 DUP2 EQ PUSH2 0x718 JUMPI PUSH0 DUP5 ISZERO PUSH2 0x706 JUMPI DUP3 DUP8 ADD MLOAD SWAP1 POP JUMPDEST PUSH2 0x710 DUP6 DUP3 PUSH2 0x695 JUMP JUMPDEST DUP7 SSTORE POP PUSH2 0x777 JUMP JUMPDEST PUSH1 0x1F NOT DUP5 AND PUSH2 0x726 DUP7 PUSH2 0x513 JUMP JUMPDEST PUSH0 JUMPDEST DUP3 DUP2 LT ISZERO PUSH2 0x74D JUMPI DUP5 DUP10 ADD MLOAD DUP3 SSTORE PUSH1 0x1 DUP3 ADD SWAP2 POP PUSH1 0x20 DUP6 ADD SWAP5 POP PUSH1 0x20 DUP2 ADD SWAP1 POP PUSH2 0x728 JUMP JUMPDEST DUP7 DUP4 LT ISZERO PUSH2 0x76A JUMPI DUP5 DUP10 ADD MLOAD PUSH2 0x766 PUSH1 0x1F DUP10 AND DUP3 PUSH2 0x679 JUMP JUMPDEST DUP4 SSTORE POP JUMPDEST PUSH1 0x1 PUSH1 0x2 DUP9 MUL ADD DUP9 SSTORE POP POP POP JUMPDEST POP POP POP POP POP POP JUMP JUMPDEST PUSH32 0x4E487B7100000000000000000000000000000000000000000000000000000000 PUSH0 MSTORE PUSH1 0x11 PUSH1 0x4 MSTORE PUSH1 0x24 PUSH0 REVERT JUMPDEST PUSH0 PUSH2 0x7B6 DUP3 PUSH2 0x361 JUMP JUMPDEST SWAP2 POP PUSH2 0x7C1 DUP4 PUSH2 0x361 JUMP JUMPDEST SWAP3 POP DUP3 DUP3 ADD SWAP1 POP DUP1 DUP3 GT ISZERO PUSH2 0x7D9 JUMPI PUSH2 0x7D8 PUSH2 0x77F JUMP JUMPDEST JUMPDEST SWAP3 SWAP2 POP POP JUMP INVALID LOG2 PUSH5 0x6970667358 0x22 SLT KECCAK256 MLOAD LOG1 GT 0xE2 BLOBHASH 0xE CODECOPY LOG3 0x21 0xBF 0xB9 0xEC 0xEB DUP6 RETURN 0xE8 0xAE CALL 0x28 SGT JUMPDEST STATICCALL 0xD6 0xBD CALLER 0xDA 0xEA 0xBA 0x2D GAS DELEGATECALL XOR PUSH5 0x736F6C6343 STOP ADDMOD BYTE STOP CALLER "
				},
				"gasEstimates": {
					"creation": {
						"codeDepositCost": "413800",
						"executionCost": "24712",
						"totalCost": "438512"
					},
					"external": {
						"currentBalance()": "2446",
						"deposit()": "infinite",
						"withdraw(uint256)": "infinite",
						"withdrawToAcc(address,uint256)": "infinite"
					}
				},
				"methodIdentifiers": {
					"currentBalance()": "ce845d1d",
					"deposit()": "d0e30db0",
					"withdraw(uint256)": "2e1a7d4d",
					"withdrawToAcc(address,uint256)": "4d6d7811"
				}
			},
			"storageLayout": {
				"storage": [
					{
						"astId": 3,
						"contract": "contracts/Wallet.sol:MyWallet",
						"label": "currentBalance",
						"offset": 0,
						"slot": "0",
						"type": "t_uint256"
					},
					{
						"astId": 5,
						"contract": "contracts/Wallet.sol:MyWallet",
						"label": "owner",
						"offset": 0,
						"slot": "1",
						"type": "t_address"
					},
					{
						"astId": 7,
						"contract": "contracts/Wallet.sol:MyWallet",
						"label": "error",
						"offset": 0,
						"slot": "2",
						"type": "t_string_storage"
					}
				],
				"types": {
					"t_address": {
						"encoding": "inplace",
						"label": "address",
						"numberOfBytes": "20"
					},
					"t_string_storage": {
						"encoding": "bytes",
						"label": "string",
						"numberOfBytes": "32"
					},
					"t_uint256": {
						"encoding": "inplace",
						"label": "uint256",
						"numberOfBytes": "32"
					}
				}
			},
			"userdoc": {
				"kind": "user",
				"methods": {},
				"version": 1
			}
		}
	}
}