{
	"contracts/MessengerContract.sol": {
		"messenger": {
			"abi": [
				{
					"inputs": [],
					"stateMutability": "nonpayable",
					"type": "constructor"
				},
				{
					"inputs": [],
					"name": "counter",
					"outputs": [
						{
							"internalType": "uint256",
							"name": "",
							"type": "uint256"
						}
					],
					"stateMutability": "view",
					"type": "function"
				},
				{
					"inputs": [],
					"name": "myString",
					"outputs": [
						{
							"internalType": "string",
							"name": "",
							"type": "string"
						}
					],
					"stateMutability": "view",
					"type": "function"
				},
				{
					"inputs": [],
					"name": "owner",
					"outputs": [
						{
							"internalType": "address",
							"name": "",
							"type": "address"
						}
					],
					"stateMutability": "view",
					"type": "function"
				},
				{
					"inputs": [
						{
							"internalType": "address",
							"name": "_receipeint",
							"type": "address"
						}
					],
					"name": "sendMoney",
					"outputs": [],
					"stateMutability": "payable",
					"type": "function"
				},
				{
					"inputs": [
						{
							"internalType": "string",
							"name": "_newMessage",
							"type": "string"
						}
					],
					"name": "updateMess",
					"outputs": [],
					"stateMutability": "payable",
					"type": "function"
				}
			],
			"devdoc": {
				"kind": "dev",
				"methods": {},
				"version": 1
			},
			"evm": {
				"assembly": "    /* \"contracts/MessengerContract.sol\":105:718  contract messenger{... */\n  mstore(0x40, 0x80)\n    /* \"contracts/MessengerContract.sol\":214:265  constructor(){ ... */\n  callvalue\n  dup1\n  iszero\n  tag_1\n  jumpi\n  0x00\n  dup1\n  revert\ntag_1:\n  pop\n    /* \"contracts/MessengerContract.sol\":247:257  msg.sender */\n  caller\n    /* \"contracts/MessengerContract.sol\":239:244  owner */\n  0x01\n  0x00\n    /* \"contracts/MessengerContract.sol\":239:257  owner = msg.sender */\n  0x0100\n  exp\n  dup2\n  sload\n  dup2\n  0xffffffffffffffffffffffffffffffffffffffff\n  mul\n  not\n  and\n  swap1\n  dup4\n  0xffffffffffffffffffffffffffffffffffffffff\n  and\n  mul\n  or\n  swap1\n  sstore\n  pop\n    /* \"contracts/MessengerContract.sol\":105:718  contract messenger{... */\n  dataSize(sub_0)\n  dup1\n  dataOffset(sub_0)\n  0x00\n  codecopy\n  0x00\n  return\nstop\n\nsub_0: assembly {\n        /* \"contracts/MessengerContract.sol\":105:718  contract messenger{... */\n      mstore(0x40, 0x80)\n      jumpi(tag_1, lt(calldatasize, 0x04))\n      shr(0xe0, calldataload(0x00))\n      dup1\n      0x338ccd78\n      eq\n      tag_2\n      jumpi\n      dup1\n      0x39f79d81\n      eq\n      tag_3\n      jumpi\n      dup1\n      0x492bfa18\n      eq\n      tag_4\n      jumpi\n      dup1\n      0x61bc221a\n      eq\n      tag_5\n      jumpi\n      dup1\n      0x8da5cb5b\n      eq\n      tag_6\n      jumpi\n    tag_1:\n      0x00\n      dup1\n      revert\n        /* \"contracts/MessengerContract.sol\":478:715  function sendMoney(address _receipeint) public payable {... */\n    tag_2:\n      tag_7\n      0x04\n      dup1\n      calldatasize\n      sub\n      dup2\n      add\n      swap1\n      tag_8\n      swap2\n      swap1\n      tag_9\n      jump\t// in\n    tag_8:\n      tag_10\n      jump\t// in\n    tag_7:\n      stop\n        /* \"contracts/MessengerContract.sol\":273:472  function updateMess(string memory _newMessage)public payable {... */\n    tag_3:\n      tag_11\n      0x04\n      dup1\n      calldatasize\n      sub\n      dup2\n      add\n      swap1\n      tag_12\n      swap2\n      swap1\n      tag_13\n      jump\t// in\n    tag_12:\n      tag_14\n      jump\t// in\n    tag_11:\n      stop\n        /* \"contracts/MessengerContract.sol\":183:205  string public myString */\n    tag_4:\n      callvalue\n      dup1\n      iszero\n      tag_15\n      jumpi\n      0x00\n      dup1\n      revert\n    tag_15:\n      pop\n      tag_16\n      tag_17\n      jump\t// in\n    tag_16:\n      mload(0x40)\n      tag_18\n      swap2\n      swap1\n      tag_19\n      jump\t// in\n    tag_18:\n      mload(0x40)\n      dup1\n      swap2\n      sub\n      swap1\n      return\n        /* \"contracts/MessengerContract.sol\":130:149  uint public counter */\n    tag_5:\n      callvalue\n      dup1\n      iszero\n      tag_20\n      jumpi\n      0x00\n      dup1\n      revert\n    tag_20:\n      pop\n      tag_21\n      tag_22\n      jump\t// in\n    tag_21:\n      mload(0x40)\n      tag_23\n      swap2\n      swap1\n      tag_24\n      jump\t// in\n    tag_23:\n      mload(0x40)\n      dup1\n      swap2\n      sub\n      swap1\n      return\n        /* \"contracts/MessengerContract.sol\":156:176  address public owner */\n    tag_6:\n      callvalue\n      dup1\n      iszero\n      tag_25\n      jumpi\n      0x00\n      dup1\n      revert\n    tag_25:\n      pop\n      tag_26\n      tag_27\n      jump\t// in\n    tag_26:\n      mload(0x40)\n      tag_28\n      swap2\n      swap1\n      tag_29\n      jump\t// in\n    tag_28:\n      mload(0x40)\n      dup1\n      swap2\n      sub\n      swap1\n      return\n        /* \"contracts/MessengerContract.sol\":478:715  function sendMoney(address _receipeint) public payable {... */\n    tag_10:\n        /* \"contracts/MessengerContract.sol\":560:568  10 ether */\n      0x8ac7230489e80000\n        /* \"contracts/MessengerContract.sol\":547:556  msg.value */\n      callvalue\n        /* \"contracts/MessengerContract.sol\":547:568  msg.value >= 10 ether */\n      lt\n        /* \"contracts/MessengerContract.sol\":544:708  if(msg.value >= 10 ether){... */\n      tag_31\n      jumpi\n        /* \"contracts/MessengerContract.sol\":592:603  _receipeint */\n      dup1\n        /* \"contracts/MessengerContract.sol\":584:613  payable(_receipeint).transfer */\n      0xffffffffffffffffffffffffffffffffffffffff\n      and\n        /* \"contracts/MessengerContract.sol\":584:624  payable(_receipeint).transfer(msg.value) */\n      0x08fc\n        /* \"contracts/MessengerContract.sol\":614:623  msg.value */\n      callvalue\n        /* \"contracts/MessengerContract.sol\":584:624  payable(_receipeint).transfer(msg.value) */\n      swap1\n      dup2\n      iszero\n      mul\n      swap1\n      mload(0x40)\n      0x00\n      mload(0x40)\n      dup1\n      dup4\n      sub\n      dup2\n      dup6\n      dup9\n      dup9\n      call\n      swap4\n      pop\n      pop\n      pop\n      pop\n      iszero\n      dup1\n      iszero\n      tag_33\n      jumpi\n      returndatasize\n      0x00\n      dup1\n      returndatacopy\n      revert(0x00, returndatasize)\n    tag_33:\n      pop\n        /* \"contracts/MessengerContract.sol\":544:708  if(msg.value >= 10 ether){... */\n      jump(tag_34)\n    tag_31:\n        /* \"contracts/MessengerContract.sol\":665:675  msg.sender */\n      caller\n        /* \"contracts/MessengerContract.sol\":656:685  payable (msg.sender).transfer */\n      0xffffffffffffffffffffffffffffffffffffffff\n      and\n        /* \"contracts/MessengerContract.sol\":656:696  payable (msg.sender).transfer(msg.value) */\n      0x08fc\n        /* \"contracts/MessengerContract.sol\":686:695  msg.value */\n      callvalue\n        /* \"contracts/MessengerContract.sol\":656:696  payable (msg.sender).transfer(msg.value) */\n      swap1\n      dup2\n      iszero\n      mul\n      swap1\n      mload(0x40)\n      0x00\n      mload(0x40)\n      dup1\n      dup4\n      sub\n      dup2\n      dup6\n      dup9\n      dup9\n      call\n      swap4\n      pop\n      pop\n      pop\n      pop\n      iszero\n      dup1\n      iszero\n      tag_36\n      jumpi\n      returndatasize\n      0x00\n      dup1\n      returndatacopy\n      revert(0x00, returndatasize)\n    tag_36:\n      pop\n        /* \"contracts/MessengerContract.sol\":544:708  if(msg.value >= 10 ether){... */\n    tag_34:\n        /* \"contracts/MessengerContract.sol\":478:715  function sendMoney(address _receipeint) public payable {... */\n      pop\n      jump\t// out\n        /* \"contracts/MessengerContract.sol\":273:472  function updateMess(string memory _newMessage)public payable {... */\n    tag_14:\n        /* \"contracts/MessengerContract.sol\":362:367  owner */\n      0x01\n      0x00\n      swap1\n      sload\n      swap1\n      0x0100\n      exp\n      swap1\n      div\n      0xffffffffffffffffffffffffffffffffffffffff\n      and\n        /* \"contracts/MessengerContract.sol\":348:367  msg.sender == owner */\n      0xffffffffffffffffffffffffffffffffffffffff\n      and\n        /* \"contracts/MessengerContract.sol\":348:358  msg.sender */\n      caller\n        /* \"contracts/MessengerContract.sol\":348:367  msg.sender == owner */\n      0xffffffffffffffffffffffffffffffffffffffff\n      and\n      eq\n        /* \"contracts/MessengerContract.sol\":348:390  msg.sender == owner && msg.value >= 10 wei */\n      dup1\n      iszero\n      tag_38\n      jumpi\n      pop\n        /* \"contracts/MessengerContract.sol\":384:390  10 wei */\n      0x0a\n        /* \"contracts/MessengerContract.sol\":371:380  msg.value */\n      callvalue\n        /* \"contracts/MessengerContract.sol\":371:390  msg.value >= 10 wei */\n      lt\n      iszero\n        /* \"contracts/MessengerContract.sol\":348:390  msg.sender == owner && msg.value >= 10 wei */\n    tag_38:\n        /* \"contracts/MessengerContract.sol\":345:465  if(msg.sender == owner && msg.value >= 10 wei){... */\n      iszero\n      tag_39\n      jumpi\n        /* \"contracts/MessengerContract.sol\":417:428  _newMessage */\n      dup1\n        /* \"contracts/MessengerContract.sol\":406:414  myString */\n      0x02\n        /* \"contracts/MessengerContract.sol\":406:428  myString = _newMessage */\n      swap1\n      dup2\n      tag_40\n      swap2\n      swap1\n      tag_41\n      jump\t// in\n    tag_40:\n      pop\n        /* \"contracts/MessengerContract.sol\":452:453  1 */\n      0x01\n        /* \"contracts/MessengerContract.sol\":443:450  counter */\n      0x00\n      dup1\n        /* \"contracts/MessengerContract.sol\":443:453  counter+=1 */\n      dup3\n      dup3\n      sload\n      tag_42\n      swap2\n      swap1\n      tag_43\n      jump\t// in\n    tag_42:\n      swap3\n      pop\n      pop\n      dup2\n      swap1\n      sstore\n      pop\n        /* \"contracts/MessengerContract.sol\":345:465  if(msg.sender == owner && msg.value >= 10 wei){... */\n    tag_39:\n        /* \"contracts/MessengerContract.sol\":273:472  function updateMess(string memory _newMessage)public payable {... */\n      pop\n      jump\t// out\n        /* \"contracts/MessengerContract.sol\":183:205  string public myString */\n    tag_17:\n      0x02\n      dup1\n      sload\n      tag_44\n      swap1\n      tag_45\n      jump\t// in\n    tag_44:\n      dup1\n      0x1f\n      add\n      0x20\n      dup1\n      swap2\n      div\n      mul\n      0x20\n      add\n      mload(0x40)\n      swap1\n      dup2\n      add\n      0x40\n      mstore\n      dup1\n      swap3\n      swap2\n      swap1\n      dup2\n      dup2\n      mstore\n      0x20\n      add\n      dup3\n      dup1\n      sload\n      tag_46\n      swap1\n      tag_45\n      jump\t// in\n    tag_46:\n      dup1\n      iszero\n      tag_47\n      jumpi\n      dup1\n      0x1f\n      lt\n      tag_48\n      jumpi\n      0x0100\n      dup1\n      dup4\n      sload\n      div\n      mul\n      dup4\n      mstore\n      swap2\n      0x20\n      add\n      swap2\n      jump(tag_47)\n    tag_48:\n      dup3\n      add\n      swap2\n      swap1\n      0x00\n      mstore\n      keccak256(0x00, 0x20)\n      swap1\n    tag_49:\n      dup2\n      sload\n      dup2\n      mstore\n      swap1\n      0x01\n      add\n      swap1\n      0x20\n      add\n      dup1\n      dup4\n      gt\n      tag_49\n      jumpi\n      dup3\n      swap1\n      sub\n      0x1f\n      and\n      dup3\n      add\n      swap2\n    tag_47:\n      pop\n      pop\n      pop\n      pop\n      pop\n      dup2\n      jump\t// out\n        /* \"contracts/MessengerContract.sol\":130:149  uint public counter */\n    tag_22:\n      sload(0x00)\n      dup2\n      jump\t// out\n        /* \"contracts/MessengerContract.sol\":156:176  address public owner */\n    tag_27:\n      0x01\n      0x00\n      swap1\n      sload\n      swap1\n      0x0100\n      exp\n      swap1\n      div\n      0xffffffffffffffffffffffffffffffffffffffff\n      and\n      dup2\n      jump\t// out\n        /* \"#utility.yul\":7:82   */\n    tag_50:\n        /* \"#utility.yul\":40:46   */\n      0x00\n        /* \"#utility.yul\":73:75   */\n      0x40\n        /* \"#utility.yul\":67:76   */\n      mload\n        /* \"#utility.yul\":57:76   */\n      swap1\n      pop\n        /* \"#utility.yul\":7:82   */\n      swap1\n      jump\t// out\n        /* \"#utility.yul\":88:205   */\n    tag_51:\n        /* \"#utility.yul\":197:198   */\n      0x00\n        /* \"#utility.yul\":194:195   */\n      dup1\n        /* \"#utility.yul\":187:199   */\n      revert\n        /* \"#utility.yul\":211:328   */\n    tag_52:\n        /* \"#utility.yul\":320:321   */\n      0x00\n        /* \"#utility.yul\":317:318   */\n      dup1\n        /* \"#utility.yul\":310:322   */\n      revert\n        /* \"#utility.yul\":334:460   */\n    tag_53:\n        /* \"#utility.yul\":371:378   */\n      0x00\n        /* \"#utility.yul\":411:453   */\n      0xffffffffffffffffffffffffffffffffffffffff\n        /* \"#utility.yul\":404:409   */\n      dup3\n        /* \"#utility.yul\":400:454   */\n      and\n        /* \"#utility.yul\":389:454   */\n      swap1\n      pop\n        /* \"#utility.yul\":334:460   */\n      swap2\n      swap1\n      pop\n      jump\t// out\n        /* \"#utility.yul\":466:562   */\n    tag_54:\n        /* \"#utility.yul\":503:510   */\n      0x00\n        /* \"#utility.yul\":532:556   */\n      tag_97\n        /* \"#utility.yul\":550:555   */\n      dup3\n        /* \"#utility.yul\":532:556   */\n      tag_53\n      jump\t// in\n    tag_97:\n        /* \"#utility.yul\":521:556   */\n      swap1\n      pop\n        /* \"#utility.yul\":466:562   */\n      swap2\n      swap1\n      pop\n      jump\t// out\n        /* \"#utility.yul\":568:690   */\n    tag_55:\n        /* \"#utility.yul\":641:665   */\n      tag_99\n        /* \"#utility.yul\":659:664   */\n      dup2\n        /* \"#utility.yul\":641:665   */\n      tag_54\n      jump\t// in\n    tag_99:\n        /* \"#utility.yul\":634:639   */\n      dup2\n        /* \"#utility.yul\":631:666   */\n      eq\n        /* \"#utility.yul\":621:684   */\n      tag_100\n      jumpi\n        /* \"#utility.yul\":680:681   */\n      0x00\n        /* \"#utility.yul\":677:678   */\n      dup1\n        /* \"#utility.yul\":670:682   */\n      revert\n        /* \"#utility.yul\":621:684   */\n    tag_100:\n        /* \"#utility.yul\":568:690   */\n      pop\n      jump\t// out\n        /* \"#utility.yul\":696:835   */\n    tag_56:\n        /* \"#utility.yul\":742:747   */\n      0x00\n        /* \"#utility.yul\":780:786   */\n      dup2\n        /* \"#utility.yul\":767:787   */\n      calldataload\n        /* \"#utility.yul\":758:787   */\n      swap1\n      pop\n        /* \"#utility.yul\":796:829   */\n      tag_102\n        /* \"#utility.yul\":823:828   */\n      dup2\n        /* \"#utility.yul\":796:829   */\n      tag_55\n      jump\t// in\n    tag_102:\n        /* \"#utility.yul\":696:835   */\n      swap3\n      swap2\n      pop\n      pop\n      jump\t// out\n        /* \"#utility.yul\":841:1170   */\n    tag_9:\n        /* \"#utility.yul\":900:906   */\n      0x00\n        /* \"#utility.yul\":949:951   */\n      0x20\n        /* \"#utility.yul\":937:946   */\n      dup3\n        /* \"#utility.yul\":928:935   */\n      dup5\n        /* \"#utility.yul\":924:947   */\n      sub\n        /* \"#utility.yul\":920:952   */\n      slt\n        /* \"#utility.yul\":917:1036   */\n      iszero\n      tag_104\n      jumpi\n        /* \"#utility.yul\":955:1034   */\n      tag_105\n      tag_51\n      jump\t// in\n    tag_105:\n        /* \"#utility.yul\":917:1036   */\n    tag_104:\n        /* \"#utility.yul\":1075:1076   */\n      0x00\n        /* \"#utility.yul\":1100:1153   */\n      tag_106\n        /* \"#utility.yul\":1145:1152   */\n      dup5\n        /* \"#utility.yul\":1136:1142   */\n      dup3\n        /* \"#utility.yul\":1125:1134   */\n      dup6\n        /* \"#utility.yul\":1121:1143   */\n      add\n        /* \"#utility.yul\":1100:1153   */\n      tag_56\n      jump\t// in\n    tag_106:\n        /* \"#utility.yul\":1090:1153   */\n      swap2\n      pop\n        /* \"#utility.yul\":1046:1163   */\n      pop\n        /* \"#utility.yul\":841:1170   */\n      swap3\n      swap2\n      pop\n      pop\n      jump\t// out\n        /* \"#utility.yul\":1176:1293   */\n    tag_57:\n        /* \"#utility.yul\":1285:1286   */\n      0x00\n        /* \"#utility.yul\":1282:1283   */\n      dup1\n        /* \"#utility.yul\":1275:1287   */\n      revert\n        /* \"#utility.yul\":1299:1416   */\n    tag_58:\n        /* \"#utility.yul\":1408:1409   */\n      0x00\n        /* \"#utility.yul\":1405:1406   */\n      dup1\n        /* \"#utility.yul\":1398:1410   */\n      revert\n        /* \"#utility.yul\":1422:1524   */\n    tag_59:\n        /* \"#utility.yul\":1463:1469   */\n      0x00\n        /* \"#utility.yul\":1514:1516   */\n      0x1f\n        /* \"#utility.yul\":1510:1517   */\n      not\n        /* \"#utility.yul\":1505:1507   */\n      0x1f\n        /* \"#utility.yul\":1498:1503   */\n      dup4\n        /* \"#utility.yul\":1494:1508   */\n      add\n        /* \"#utility.yul\":1490:1518   */\n      and\n        /* \"#utility.yul\":1480:1518   */\n      swap1\n      pop\n        /* \"#utility.yul\":1422:1524   */\n      swap2\n      swap1\n      pop\n      jump\t// out\n        /* \"#utility.yul\":1530:1710   */\n    tag_60:\n        /* \"#utility.yul\":1578:1655   */\n      0x4e487b7100000000000000000000000000000000000000000000000000000000\n        /* \"#utility.yul\":1575:1576   */\n      0x00\n        /* \"#utility.yul\":1568:1656   */\n      mstore\n        /* \"#utility.yul\":1675:1679   */\n      0x41\n        /* \"#utility.yul\":1672:1673   */\n      0x04\n        /* \"#utility.yul\":1665:1680   */\n      mstore\n        /* \"#utility.yul\":1699:1703   */\n      0x24\n        /* \"#utility.yul\":1696:1697   */\n      0x00\n        /* \"#utility.yul\":1689:1704   */\n      revert\n        /* \"#utility.yul\":1716:1997   */\n    tag_61:\n        /* \"#utility.yul\":1799:1826   */\n      tag_112\n        /* \"#utility.yul\":1821:1825   */\n      dup3\n        /* \"#utility.yul\":1799:1826   */\n      tag_59\n      jump\t// in\n    tag_112:\n        /* \"#utility.yul\":1791:1797   */\n      dup2\n        /* \"#utility.yul\":1787:1827   */\n      add\n        /* \"#utility.yul\":1929:1935   */\n      dup2\n        /* \"#utility.yul\":1917:1927   */\n      dup2\n        /* \"#utility.yul\":1914:1936   */\n      lt\n        /* \"#utility.yul\":1893:1911   */\n      0xffffffffffffffff\n        /* \"#utility.yul\":1881:1891   */\n      dup3\n        /* \"#utility.yul\":1878:1912   */\n      gt\n        /* \"#utility.yul\":1875:1937   */\n      or\n        /* \"#utility.yul\":1872:1960   */\n      iszero\n      tag_113\n      jumpi\n        /* \"#utility.yul\":1940:1958   */\n      tag_114\n      tag_60\n      jump\t// in\n    tag_114:\n        /* \"#utility.yul\":1872:1960   */\n    tag_113:\n        /* \"#utility.yul\":1980:1990   */\n      dup1\n        /* \"#utility.yul\":1976:1978   */\n      0x40\n        /* \"#utility.yul\":1969:1991   */\n      mstore\n        /* \"#utility.yul\":1759:1997   */\n      pop\n        /* \"#utility.yul\":1716:1997   */\n      pop\n      pop\n      jump\t// out\n        /* \"#utility.yul\":2003:2132   */\n    tag_62:\n        /* \"#utility.yul\":2037:2043   */\n      0x00\n        /* \"#utility.yul\":2064:2084   */\n      tag_116\n      tag_50\n      jump\t// in\n    tag_116:\n        /* \"#utility.yul\":2054:2084   */\n      swap1\n      pop\n        /* \"#utility.yul\":2093:2126   */\n      tag_117\n        /* \"#utility.yul\":2121:2125   */\n      dup3\n        /* \"#utility.yul\":2113:2119   */\n      dup3\n        /* \"#utility.yul\":2093:2126   */\n      tag_61\n      jump\t// in\n    tag_117:\n        /* \"#utility.yul\":2003:2132   */\n      swap2\n      swap1\n      pop\n      jump\t// out\n        /* \"#utility.yul\":2138:2446   */\n    tag_63:\n        /* \"#utility.yul\":2200:2204   */\n      0x00\n        /* \"#utility.yul\":2290:2308   */\n      0xffffffffffffffff\n        /* \"#utility.yul\":2282:2288   */\n      dup3\n        /* \"#utility.yul\":2279:2309   */\n      gt\n        /* \"#utility.yul\":2276:2332   */\n      iszero\n      tag_119\n      jumpi\n        /* \"#utility.yul\":2312:2330   */\n      tag_120\n      tag_60\n      jump\t// in\n    tag_120:\n        /* \"#utility.yul\":2276:2332   */\n    tag_119:\n        /* \"#utility.yul\":2350:2379   */\n      tag_121\n        /* \"#utility.yul\":2372:2378   */\n      dup3\n        /* \"#utility.yul\":2350:2379   */\n      tag_59\n      jump\t// in\n    tag_121:\n        /* \"#utility.yul\":2342:2379   */\n      swap1\n      pop\n        /* \"#utility.yul\":2434:2438   */\n      0x20\n        /* \"#utility.yul\":2428:2432   */\n      dup2\n        /* \"#utility.yul\":2424:2439   */\n      add\n        /* \"#utility.yul\":2416:2439   */\n      swap1\n      pop\n        /* \"#utility.yul\":2138:2446   */\n      swap2\n      swap1\n      pop\n      jump\t// out\n        /* \"#utility.yul\":2452:2600   */\n    tag_64:\n        /* \"#utility.yul\":2550:2556   */\n      dup3\n        /* \"#utility.yul\":2545:2548   */\n      dup2\n        /* \"#utility.yul\":2540:2543   */\n      dup4\n        /* \"#utility.yul\":2527:2557   */\n      calldatacopy\n        /* \"#utility.yul\":2591:2592   */\n      0x00\n        /* \"#utility.yul\":2582:2588   */\n      dup4\n        /* \"#utility.yul\":2577:2580   */\n      dup4\n        /* \"#utility.yul\":2573:2589   */\n      add\n        /* \"#utility.yul\":2566:2593   */\n      mstore\n        /* \"#utility.yul\":2452:2600   */\n      pop\n      pop\n      pop\n      jump\t// out\n        /* \"#utility.yul\":2606:3031   */\n    tag_65:\n        /* \"#utility.yul\":2684:2689   */\n      0x00\n        /* \"#utility.yul\":2709:2775   */\n      tag_124\n        /* \"#utility.yul\":2725:2774   */\n      tag_125\n        /* \"#utility.yul\":2767:2773   */\n      dup5\n        /* \"#utility.yul\":2725:2774   */\n      tag_63\n      jump\t// in\n    tag_125:\n        /* \"#utility.yul\":2709:2775   */\n      tag_62\n      jump\t// in\n    tag_124:\n        /* \"#utility.yul\":2700:2775   */\n      swap1\n      pop\n        /* \"#utility.yul\":2798:2804   */\n      dup3\n        /* \"#utility.yul\":2791:2796   */\n      dup2\n        /* \"#utility.yul\":2784:2805   */\n      mstore\n        /* \"#utility.yul\":2836:2840   */\n      0x20\n        /* \"#utility.yul\":2829:2834   */\n      dup2\n        /* \"#utility.yul\":2825:2841   */\n      add\n        /* \"#utility.yul\":2874:2877   */\n      dup5\n        /* \"#utility.yul\":2865:2871   */\n      dup5\n        /* \"#utility.yul\":2860:2863   */\n      dup5\n        /* \"#utility.yul\":2856:2872   */\n      add\n        /* \"#utility.yul\":2853:2878   */\n      gt\n        /* \"#utility.yul\":2850:2962   */\n      iszero\n      tag_126\n      jumpi\n        /* \"#utility.yul\":2881:2960   */\n      tag_127\n      tag_58\n      jump\t// in\n    tag_127:\n        /* \"#utility.yul\":2850:2962   */\n    tag_126:\n        /* \"#utility.yul\":2971:3025   */\n      tag_128\n        /* \"#utility.yul\":3018:3024   */\n      dup5\n        /* \"#utility.yul\":3013:3016   */\n      dup3\n        /* \"#utility.yul\":3008:3011   */\n      dup6\n        /* \"#utility.yul\":2971:3025   */\n      tag_64\n      jump\t// in\n    tag_128:\n        /* \"#utility.yul\":2690:3031   */\n      pop\n        /* \"#utility.yul\":2606:3031   */\n      swap4\n      swap3\n      pop\n      pop\n      pop\n      jump\t// out\n        /* \"#utility.yul\":3051:3391   */\n    tag_66:\n        /* \"#utility.yul\":3107:3112   */\n      0x00\n        /* \"#utility.yul\":3156:3159   */\n      dup3\n        /* \"#utility.yul\":3149:3153   */\n      0x1f\n        /* \"#utility.yul\":3141:3147   */\n      dup4\n        /* \"#utility.yul\":3137:3154   */\n      add\n        /* \"#utility.yul\":3133:3160   */\n      slt\n        /* \"#utility.yul\":3123:3245   */\n      tag_130\n      jumpi\n        /* \"#utility.yul\":3164:3243   */\n      tag_131\n      tag_57\n      jump\t// in\n    tag_131:\n        /* \"#utility.yul\":3123:3245   */\n    tag_130:\n        /* \"#utility.yul\":3281:3287   */\n      dup2\n        /* \"#utility.yul\":3268:3288   */\n      calldataload\n        /* \"#utility.yul\":3306:3385   */\n      tag_132\n        /* \"#utility.yul\":3381:3384   */\n      dup5\n        /* \"#utility.yul\":3373:3379   */\n      dup3\n        /* \"#utility.yul\":3366:3370   */\n      0x20\n        /* \"#utility.yul\":3358:3364   */\n      dup7\n        /* \"#utility.yul\":3354:3371   */\n      add\n        /* \"#utility.yul\":3306:3385   */\n      tag_65\n      jump\t// in\n    tag_132:\n        /* \"#utility.yul\":3297:3385   */\n      swap2\n      pop\n        /* \"#utility.yul\":3113:3391   */\n      pop\n        /* \"#utility.yul\":3051:3391   */\n      swap3\n      swap2\n      pop\n      pop\n      jump\t// out\n        /* \"#utility.yul\":3397:3906   */\n    tag_13:\n        /* \"#utility.yul\":3466:3472   */\n      0x00\n        /* \"#utility.yul\":3515:3517   */\n      0x20\n        /* \"#utility.yul\":3503:3512   */\n      dup3\n        /* \"#utility.yul\":3494:3501   */\n      dup5\n        /* \"#utility.yul\":3490:3513   */\n      sub\n        /* \"#utility.yul\":3486:3518   */\n      slt\n        /* \"#utility.yul\":3483:3602   */\n      iszero\n      tag_134\n      jumpi\n        /* \"#utility.yul\":3521:3600   */\n      tag_135\n      tag_51\n      jump\t// in\n    tag_135:\n        /* \"#utility.yul\":3483:3602   */\n    tag_134:\n        /* \"#utility.yul\":3669:3670   */\n      0x00\n        /* \"#utility.yul\":3658:3667   */\n      dup3\n        /* \"#utility.yul\":3654:3671   */\n      add\n        /* \"#utility.yul\":3641:3672   */\n      calldataload\n        /* \"#utility.yul\":3699:3717   */\n      0xffffffffffffffff\n        /* \"#utility.yul\":3691:3697   */\n      dup2\n        /* \"#utility.yul\":3688:3718   */\n      gt\n        /* \"#utility.yul\":3685:3802   */\n      iszero\n      tag_136\n      jumpi\n        /* \"#utility.yul\":3721:3800   */\n      tag_137\n      tag_52\n      jump\t// in\n    tag_137:\n        /* \"#utility.yul\":3685:3802   */\n    tag_136:\n        /* \"#utility.yul\":3826:3889   */\n      tag_138\n        /* \"#utility.yul\":3881:3888   */\n      dup5\n        /* \"#utility.yul\":3872:3878   */\n      dup3\n        /* \"#utility.yul\":3861:3870   */\n      dup6\n        /* \"#utility.yul\":3857:3879   */\n      add\n        /* \"#utility.yul\":3826:3889   */\n      tag_66\n      jump\t// in\n    tag_138:\n        /* \"#utility.yul\":3816:3889   */\n      swap2\n      pop\n        /* \"#utility.yul\":3612:3899   */\n      pop\n        /* \"#utility.yul\":3397:3906   */\n      swap3\n      swap2\n      pop\n      pop\n      jump\t// out\n        /* \"#utility.yul\":3912:4011   */\n    tag_67:\n        /* \"#utility.yul\":3964:3970   */\n      0x00\n        /* \"#utility.yul\":3998:4003   */\n      dup2\n        /* \"#utility.yul\":3992:4004   */\n      mload\n        /* \"#utility.yul\":3982:4004   */\n      swap1\n      pop\n        /* \"#utility.yul\":3912:4011   */\n      swap2\n      swap1\n      pop\n      jump\t// out\n        /* \"#utility.yul\":4017:4186   */\n    tag_68:\n        /* \"#utility.yul\":4101:4112   */\n      0x00\n        /* \"#utility.yul\":4135:4141   */\n      dup3\n        /* \"#utility.yul\":4130:4133   */\n      dup3\n        /* \"#utility.yul\":4123:4142   */\n      mstore\n        /* \"#utility.yul\":4175:4179   */\n      0x20\n        /* \"#utility.yul\":4170:4173   */\n      dup3\n        /* \"#utility.yul\":4166:4180   */\n      add\n        /* \"#utility.yul\":4151:4180   */\n      swap1\n      pop\n        /* \"#utility.yul\":4017:4186   */\n      swap3\n      swap2\n      pop\n      pop\n      jump\t// out\n        /* \"#utility.yul\":4192:4331   */\n    tag_69:\n        /* \"#utility.yul\":4281:4287   */\n      dup3\n        /* \"#utility.yul\":4276:4279   */\n      dup2\n        /* \"#utility.yul\":4271:4274   */\n      dup4\n        /* \"#utility.yul\":4265:4288   */\n      mcopy\n        /* \"#utility.yul\":4322:4323   */\n      0x00\n        /* \"#utility.yul\":4313:4319   */\n      dup4\n        /* \"#utility.yul\":4308:4311   */\n      dup4\n        /* \"#utility.yul\":4304:4320   */\n      add\n        /* \"#utility.yul\":4297:4324   */\n      mstore\n        /* \"#utility.yul\":4192:4331   */\n      pop\n      pop\n      pop\n      jump\t// out\n        /* \"#utility.yul\":4337:4714   */\n    tag_70:\n        /* \"#utility.yul\":4425:4428   */\n      0x00\n        /* \"#utility.yul\":4453:4492   */\n      tag_143\n        /* \"#utility.yul\":4486:4491   */\n      dup3\n        /* \"#utility.yul\":4453:4492   */\n      tag_67\n      jump\t// in\n    tag_143:\n        /* \"#utility.yul\":4508:4579   */\n      tag_144\n        /* \"#utility.yul\":4572:4578   */\n      dup2\n        /* \"#utility.yul\":4567:4570   */\n      dup6\n        /* \"#utility.yul\":4508:4579   */\n      tag_68\n      jump\t// in\n    tag_144:\n        /* \"#utility.yul\":4501:4579   */\n      swap4\n      pop\n        /* \"#utility.yul\":4588:4653   */\n      tag_145\n        /* \"#utility.yul\":4646:4652   */\n      dup2\n        /* \"#utility.yul\":4641:4644   */\n      dup6\n        /* \"#utility.yul\":4634:4638   */\n      0x20\n        /* \"#utility.yul\":4627:4632   */\n      dup7\n        /* \"#utility.yul\":4623:4639   */\n      add\n        /* \"#utility.yul\":4588:4653   */\n      tag_69\n      jump\t// in\n    tag_145:\n        /* \"#utility.yul\":4678:4707   */\n      tag_146\n        /* \"#utility.yul\":4700:4706   */\n      dup2\n        /* \"#utility.yul\":4678:4707   */\n      tag_59\n      jump\t// in\n    tag_146:\n        /* \"#utility.yul\":4673:4676   */\n      dup5\n        /* \"#utility.yul\":4669:4708   */\n      add\n        /* \"#utility.yul\":4662:4708   */\n      swap2\n      pop\n        /* \"#utility.yul\":4429:4714   */\n      pop\n        /* \"#utility.yul\":4337:4714   */\n      swap3\n      swap2\n      pop\n      pop\n      jump\t// out\n        /* \"#utility.yul\":4720:5033   */\n    tag_19:\n        /* \"#utility.yul\":4833:4837   */\n      0x00\n        /* \"#utility.yul\":4871:4873   */\n      0x20\n        /* \"#utility.yul\":4860:4869   */\n      dup3\n        /* \"#utility.yul\":4856:4874   */\n      add\n        /* \"#utility.yul\":4848:4874   */\n      swap1\n      pop\n        /* \"#utility.yul\":4920:4929   */\n      dup2\n        /* \"#utility.yul\":4914:4918   */\n      dup2\n        /* \"#utility.yul\":4910:4930   */\n      sub\n        /* \"#utility.yul\":4906:4907   */\n      0x00\n        /* \"#utility.yul\":4895:4904   */\n      dup4\n        /* \"#utility.yul\":4891:4908   */\n      add\n        /* \"#utility.yul\":4884:4931   */\n      mstore\n        /* \"#utility.yul\":4948:5026   */\n      tag_148\n        /* \"#utility.yul\":5021:5025   */\n      dup2\n        /* \"#utility.yul\":5012:5018   */\n      dup5\n        /* \"#utility.yul\":4948:5026   */\n      tag_70\n      jump\t// in\n    tag_148:\n        /* \"#utility.yul\":4940:5026   */\n      swap1\n      pop\n        /* \"#utility.yul\":4720:5033   */\n      swap3\n      swap2\n      pop\n      pop\n      jump\t// out\n        /* \"#utility.yul\":5039:5116   */\n    tag_71:\n        /* \"#utility.yul\":5076:5083   */\n      0x00\n        /* \"#utility.yul\":5105:5110   */\n      dup2\n        /* \"#utility.yul\":5094:5110   */\n      swap1\n      pop\n        /* \"#utility.yul\":5039:5116   */\n      swap2\n      swap1\n      pop\n      jump\t// out\n        /* \"#utility.yul\":5122:5240   */\n    tag_72:\n        /* \"#utility.yul\":5209:5233   */\n      tag_151\n        /* \"#utility.yul\":5227:5232   */\n      dup2\n        /* \"#utility.yul\":5209:5233   */\n      tag_71\n      jump\t// in\n    tag_151:\n        /* \"#utility.yul\":5204:5207   */\n      dup3\n        /* \"#utility.yul\":5197:5234   */\n      mstore\n        /* \"#utility.yul\":5122:5240   */\n      pop\n      pop\n      jump\t// out\n        /* \"#utility.yul\":5246:5468   */\n    tag_24:\n        /* \"#utility.yul\":5339:5343   */\n      0x00\n        /* \"#utility.yul\":5377:5379   */\n      0x20\n        /* \"#utility.yul\":5366:5375   */\n      dup3\n        /* \"#utility.yul\":5362:5380   */\n      add\n        /* \"#utility.yul\":5354:5380   */\n      swap1\n      pop\n        /* \"#utility.yul\":5390:5461   */\n      tag_153\n        /* \"#utility.yul\":5458:5459   */\n      0x00\n        /* \"#utility.yul\":5447:5456   */\n      dup4\n        /* \"#utility.yul\":5443:5460   */\n      add\n        /* \"#utility.yul\":5434:5440   */\n      dup5\n        /* \"#utility.yul\":5390:5461   */\n      tag_72\n      jump\t// in\n    tag_153:\n        /* \"#utility.yul\":5246:5468   */\n      swap3\n      swap2\n      pop\n      pop\n      jump\t// out\n        /* \"#utility.yul\":5474:5592   */\n    tag_73:\n        /* \"#utility.yul\":5561:5585   */\n      tag_155\n        /* \"#utility.yul\":5579:5584   */\n      dup2\n        /* \"#utility.yul\":5561:5585   */\n      tag_54\n      jump\t// in\n    tag_155:\n        /* \"#utility.yul\":5556:5559   */\n      dup3\n        /* \"#utility.yul\":5549:5586   */\n      mstore\n        /* \"#utility.yul\":5474:5592   */\n      pop\n      pop\n      jump\t// out\n        /* \"#utility.yul\":5598:5820   */\n    tag_29:\n        /* \"#utility.yul\":5691:5695   */\n      0x00\n        /* \"#utility.yul\":5729:5731   */\n      0x20\n        /* \"#utility.yul\":5718:5727   */\n      dup3\n        /* \"#utility.yul\":5714:5732   */\n      add\n        /* \"#utility.yul\":5706:5732   */\n      swap1\n      pop\n        /* \"#utility.yul\":5742:5813   */\n      tag_157\n        /* \"#utility.yul\":5810:5811   */\n      0x00\n        /* \"#utility.yul\":5799:5808   */\n      dup4\n        /* \"#utility.yul\":5795:5812   */\n      add\n        /* \"#utility.yul\":5786:5792   */\n      dup5\n        /* \"#utility.yul\":5742:5813   */\n      tag_73\n      jump\t// in\n    tag_157:\n        /* \"#utility.yul\":5598:5820   */\n      swap3\n      swap2\n      pop\n      pop\n      jump\t// out\n        /* \"#utility.yul\":5826:6006   */\n    tag_74:\n        /* \"#utility.yul\":5874:5951   */\n      0x4e487b7100000000000000000000000000000000000000000000000000000000\n        /* \"#utility.yul\":5871:5872   */\n      0x00\n        /* \"#utility.yul\":5864:5952   */\n      mstore\n        /* \"#utility.yul\":5971:5975   */\n      0x22\n        /* \"#utility.yul\":5968:5969   */\n      0x04\n        /* \"#utility.yul\":5961:5976   */\n      mstore\n        /* \"#utility.yul\":5995:5999   */\n      0x24\n        /* \"#utility.yul\":5992:5993   */\n      0x00\n        /* \"#utility.yul\":5985:6000   */\n      revert\n        /* \"#utility.yul\":6012:6332   */\n    tag_45:\n        /* \"#utility.yul\":6056:6062   */\n      0x00\n        /* \"#utility.yul\":6093:6094   */\n      0x02\n        /* \"#utility.yul\":6087:6091   */\n      dup3\n        /* \"#utility.yul\":6083:6095   */\n      div\n        /* \"#utility.yul\":6073:6095   */\n      swap1\n      pop\n        /* \"#utility.yul\":6140:6141   */\n      0x01\n        /* \"#utility.yul\":6134:6138   */\n      dup3\n        /* \"#utility.yul\":6130:6142   */\n      and\n        /* \"#utility.yul\":6161:6179   */\n      dup1\n        /* \"#utility.yul\":6151:6232   */\n      tag_160\n      jumpi\n        /* \"#utility.yul\":6217:6221   */\n      0x7f\n        /* \"#utility.yul\":6209:6215   */\n      dup3\n        /* \"#utility.yul\":6205:6222   */\n      and\n        /* \"#utility.yul\":6195:6222   */\n      swap2\n      pop\n        /* \"#utility.yul\":6151:6232   */\n    tag_160:\n        /* \"#utility.yul\":6279:6281   */\n      0x20\n        /* \"#utility.yul\":6271:6277   */\n      dup3\n        /* \"#utility.yul\":6268:6282   */\n      lt\n        /* \"#utility.yul\":6248:6266   */\n      dup2\n        /* \"#utility.yul\":6245:6283   */\n      sub\n        /* \"#utility.yul\":6242:6326   */\n      tag_161\n      jumpi\n        /* \"#utility.yul\":6298:6316   */\n      tag_162\n      tag_74\n      jump\t// in\n    tag_162:\n        /* \"#utility.yul\":6242:6326   */\n    tag_161:\n        /* \"#utility.yul\":6063:6332   */\n      pop\n        /* \"#utility.yul\":6012:6332   */\n      swap2\n      swap1\n      pop\n      jump\t// out\n        /* \"#utility.yul\":6338:6479   */\n    tag_75:\n        /* \"#utility.yul\":6387:6391   */\n      0x00\n        /* \"#utility.yul\":6410:6413   */\n      dup2\n        /* \"#utility.yul\":6402:6413   */\n      swap1\n      pop\n        /* \"#utility.yul\":6433:6436   */\n      dup2\n        /* \"#utility.yul\":6430:6431   */\n      0x00\n        /* \"#utility.yul\":6423:6437   */\n      mstore\n        /* \"#utility.yul\":6467:6471   */\n      0x20\n        /* \"#utility.yul\":6464:6465   */\n      0x00\n        /* \"#utility.yul\":6454:6472   */\n      keccak256\n        /* \"#utility.yul\":6446:6472   */\n      swap1\n      pop\n        /* \"#utility.yul\":6338:6479   */\n      swap2\n      swap1\n      pop\n      jump\t// out\n        /* \"#utility.yul\":6485:6578   */\n    tag_76:\n        /* \"#utility.yul\":6522:6528   */\n      0x00\n        /* \"#utility.yul\":6569:6571   */\n      0x20\n        /* \"#utility.yul\":6564:6566   */\n      0x1f\n        /* \"#utility.yul\":6557:6562   */\n      dup4\n        /* \"#utility.yul\":6553:6567   */\n      add\n        /* \"#utility.yul\":6549:6572   */\n      div\n        /* \"#utility.yul\":6539:6572   */\n      swap1\n      pop\n        /* \"#utility.yul\":6485:6578   */\n      swap2\n      swap1\n      pop\n      jump\t// out\n        /* \"#utility.yul\":6584:6691   */\n    tag_77:\n        /* \"#utility.yul\":6628:6636   */\n      0x00\n        /* \"#utility.yul\":6678:6683   */\n      dup3\n        /* \"#utility.yul\":6672:6676   */\n      dup3\n        /* \"#utility.yul\":6668:6684   */\n      shl\n        /* \"#utility.yul\":6647:6684   */\n      swap1\n      pop\n        /* \"#utility.yul\":6584:6691   */\n      swap3\n      swap2\n      pop\n      pop\n      jump\t// out\n        /* \"#utility.yul\":6697:7090   */\n    tag_78:\n        /* \"#utility.yul\":6766:6772   */\n      0x00\n        /* \"#utility.yul\":6816:6817   */\n      0x08\n        /* \"#utility.yul\":6804:6814   */\n      dup4\n        /* \"#utility.yul\":6800:6818   */\n      mul\n        /* \"#utility.yul\":6839:6936   */\n      tag_167\n        /* \"#utility.yul\":6869:6935   */\n      0xffffffffffffffffffffffffffffffffffffffffffffffffffffffffffffffff\n        /* \"#utility.yul\":6858:6867   */\n      dup3\n        /* \"#utility.yul\":6839:6936   */\n      tag_77\n      jump\t// in\n    tag_167:\n        /* \"#utility.yul\":6957:6996   */\n      tag_168\n        /* \"#utility.yul\":6987:6995   */\n      dup7\n        /* \"#utility.yul\":6976:6985   */\n      dup4\n        /* \"#utility.yul\":6957:6996   */\n      tag_77\n      jump\t// in\n    tag_168:\n        /* \"#utility.yul\":6945:6996   */\n      swap6\n      pop\n        /* \"#utility.yul\":7029:7033   */\n      dup1\n        /* \"#utility.yul\":7025:7034   */\n      not\n        /* \"#utility.yul\":7018:7023   */\n      dup5\n        /* \"#utility.yul\":7014:7035   */\n      and\n        /* \"#utility.yul\":7005:7035   */\n      swap4\n      pop\n        /* \"#utility.yul\":7078:7082   */\n      dup1\n        /* \"#utility.yul\":7068:7076   */\n      dup7\n        /* \"#utility.yul\":7064:7083   */\n      and\n        /* \"#utility.yul\":7057:7062   */\n      dup5\n        /* \"#utility.yul\":7054:7084   */\n      or\n        /* \"#utility.yul\":7044:7084   */\n      swap3\n      pop\n        /* \"#utility.yul\":6773:7090   */\n      pop\n      pop\n        /* \"#utility.yul\":6697:7090   */\n      swap4\n      swap3\n      pop\n      pop\n      pop\n      jump\t// out\n        /* \"#utility.yul\":7096:7156   */\n    tag_79:\n        /* \"#utility.yul\":7124:7127   */\n      0x00\n        /* \"#utility.yul\":7145:7150   */\n      dup2\n        /* \"#utility.yul\":7138:7150   */\n      swap1\n      pop\n        /* \"#utility.yul\":7096:7156   */\n      swap2\n      swap1\n      pop\n      jump\t// out\n        /* \"#utility.yul\":7162:7304   */\n    tag_80:\n        /* \"#utility.yul\":7212:7221   */\n      0x00\n        /* \"#utility.yul\":7245:7298   */\n      tag_171\n        /* \"#utility.yul\":7263:7297   */\n      tag_172\n        /* \"#utility.yul\":7272:7296   */\n      tag_173\n        /* \"#utility.yul\":7290:7295   */\n      dup5\n        /* \"#utility.yul\":7272:7296   */\n      tag_71\n      jump\t// in\n    tag_173:\n        /* \"#utility.yul\":7263:7297   */\n      tag_79\n      jump\t// in\n    tag_172:\n        /* \"#utility.yul\":7245:7298   */\n      tag_71\n      jump\t// in\n    tag_171:\n        /* \"#utility.yul\":7232:7298   */\n      swap1\n      pop\n        /* \"#utility.yul\":7162:7304   */\n      swap2\n      swap1\n      pop\n      jump\t// out\n        /* \"#utility.yul\":7310:7385   */\n    tag_81:\n        /* \"#utility.yul\":7353:7356   */\n      0x00\n        /* \"#utility.yul\":7374:7379   */\n      dup2\n        /* \"#utility.yul\":7367:7379   */\n      swap1\n      pop\n        /* \"#utility.yul\":7310:7385   */\n      swap2\n      swap1\n      pop\n      jump\t// out\n        /* \"#utility.yul\":7391:7660   */\n    tag_82:\n        /* \"#utility.yul\":7501:7540   */\n      tag_176\n        /* \"#utility.yul\":7532:7539   */\n      dup4\n        /* \"#utility.yul\":7501:7540   */\n      tag_80\n      jump\t// in\n    tag_176:\n        /* \"#utility.yul\":7562:7653   */\n      tag_177\n        /* \"#utility.yul\":7611:7652   */\n      tag_178\n        /* \"#utility.yul\":7635:7651   */\n      dup3\n        /* \"#utility.yul\":7611:7652   */\n      tag_81\n      jump\t// in\n    tag_178:\n        /* \"#utility.yul\":7603:7609   */\n      dup5\n        /* \"#utility.yul\":7596:7600   */\n      dup5\n        /* \"#utility.yul\":7590:7601   */\n      sload\n        /* \"#utility.yul\":7562:7653   */\n      tag_78\n      jump\t// in\n    tag_177:\n        /* \"#utility.yul\":7556:7560   */\n      dup3\n        /* \"#utility.yul\":7549:7654   */\n      sstore\n        /* \"#utility.yul\":7467:7660   */\n      pop\n        /* \"#utility.yul\":7391:7660   */\n      pop\n      pop\n      pop\n      jump\t// out\n        /* \"#utility.yul\":7666:7739   */\n    tag_83:\n        /* \"#utility.yul\":7711:7714   */\n      0x00\n        /* \"#utility.yul\":7666:7739   */\n      swap1\n      jump\t// out\n        /* \"#utility.yul\":7745:7934   */\n    tag_84:\n        /* \"#utility.yul\":7822:7854   */\n      tag_181\n      tag_83\n      jump\t// in\n    tag_181:\n        /* \"#utility.yul\":7863:7928   */\n      tag_182\n        /* \"#utility.yul\":7921:7927   */\n      dup2\n        /* \"#utility.yul\":7913:7919   */\n      dup5\n        /* \"#utility.yul\":7907:7911   */\n      dup5\n        /* \"#utility.yul\":7863:7928   */\n      tag_82\n      jump\t// in\n    tag_182:\n        /* \"#utility.yul\":7798:7934   */\n      pop\n        /* \"#utility.yul\":7745:7934   */\n      pop\n      pop\n      jump\t// out\n        /* \"#utility.yul\":7940:8126   */\n    tag_85:\n        /* \"#utility.yul\":8000:8120   */\n    tag_184:\n        /* \"#utility.yul\":8017:8020   */\n      dup2\n        /* \"#utility.yul\":8010:8015   */\n      dup2\n        /* \"#utility.yul\":8007:8021   */\n      lt\n        /* \"#utility.yul\":8000:8120   */\n      iszero\n      tag_186\n      jumpi\n        /* \"#utility.yul\":8071:8110   */\n      tag_187\n        /* \"#utility.yul\":8108:8109   */\n      0x00\n        /* \"#utility.yul\":8101:8106   */\n      dup3\n        /* \"#utility.yul\":8071:8110   */\n      tag_84\n      jump\t// in\n    tag_187:\n        /* \"#utility.yul\":8044:8045   */\n      0x01\n        /* \"#utility.yul\":8037:8042   */\n      dup2\n        /* \"#utility.yul\":8033:8046   */\n      add\n        /* \"#utility.yul\":8024:8046   */\n      swap1\n      pop\n        /* \"#utility.yul\":8000:8120   */\n      jump(tag_184)\n    tag_186:\n        /* \"#utility.yul\":7940:8126   */\n      pop\n      pop\n      jump\t// out\n        /* \"#utility.yul\":8132:8675   */\n    tag_86:\n        /* \"#utility.yul\":8233:8235   */\n      0x1f\n        /* \"#utility.yul\":8228:8231   */\n      dup3\n        /* \"#utility.yul\":8225:8236   */\n      gt\n        /* \"#utility.yul\":8222:8668   */\n      iszero\n      tag_189\n      jumpi\n        /* \"#utility.yul\":8267:8305   */\n      tag_190\n        /* \"#utility.yul\":8299:8304   */\n      dup2\n        /* \"#utility.yul\":8267:8305   */\n      tag_75\n      jump\t// in\n    tag_190:\n        /* \"#utility.yul\":8351:8380   */\n      tag_191\n        /* \"#utility.yul\":8369:8379   */\n      dup5\n        /* \"#utility.yul\":8351:8380   */\n      tag_76\n      jump\t// in\n    tag_191:\n        /* \"#utility.yul\":8341:8349   */\n      dup2\n        /* \"#utility.yul\":8337:8381   */\n      add\n        /* \"#utility.yul\":8534:8536   */\n      0x20\n        /* \"#utility.yul\":8522:8532   */\n      dup6\n        /* \"#utility.yul\":8519:8537   */\n      lt\n        /* \"#utility.yul\":8516:8565   */\n      iszero\n      tag_192\n      jumpi\n        /* \"#utility.yul\":8555:8563   */\n      dup2\n        /* \"#utility.yul\":8540:8563   */\n      swap1\n      pop\n        /* \"#utility.yul\":8516:8565   */\n    tag_192:\n        /* \"#utility.yul\":8578:8658   */\n      tag_193\n        /* \"#utility.yul\":8634:8656   */\n      tag_194\n        /* \"#utility.yul\":8652:8655   */\n      dup6\n        /* \"#utility.yul\":8634:8656   */\n      tag_76\n      jump\t// in\n    tag_194:\n        /* \"#utility.yul\":8624:8632   */\n      dup4\n        /* \"#utility.yul\":8620:8657   */\n      add\n        /* \"#utility.yul\":8607:8618   */\n      dup3\n        /* \"#utility.yul\":8578:8658   */\n      tag_85\n      jump\t// in\n    tag_193:\n        /* \"#utility.yul\":8237:8668   */\n      pop\n      pop\n        /* \"#utility.yul\":8222:8668   */\n    tag_189:\n        /* \"#utility.yul\":8132:8675   */\n      pop\n      pop\n      pop\n      jump\t// out\n        /* \"#utility.yul\":8681:8798   */\n    tag_87:\n        /* \"#utility.yul\":8735:8743   */\n      0x00\n        /* \"#utility.yul\":8785:8790   */\n      dup3\n        /* \"#utility.yul\":8779:8783   */\n      dup3\n        /* \"#utility.yul\":8775:8791   */\n      shr\n        /* \"#utility.yul\":8754:8791   */\n      swap1\n      pop\n        /* \"#utility.yul\":8681:8798   */\n      swap3\n      swap2\n      pop\n      pop\n      jump\t// out\n        /* \"#utility.yul\":8804:8973   */\n    tag_88:\n        /* \"#utility.yul\":8848:8854   */\n      0x00\n        /* \"#utility.yul\":8881:8932   */\n      tag_197\n        /* \"#utility.yul\":8929:8930   */\n      0x00\n        /* \"#utility.yul\":8925:8931   */\n      not\n        /* \"#utility.yul\":8917:8922   */\n      dup5\n        /* \"#utility.yul\":8914:8915   */\n      0x08\n        /* \"#utility.yul\":8910:8923   */\n      mul\n        /* \"#utility.yul\":8881:8932   */\n      tag_87\n      jump\t// in\n    tag_197:\n        /* \"#utility.yul\":8877:8933   */\n      not\n        /* \"#utility.yul\":8962:8966   */\n      dup1\n        /* \"#utility.yul\":8956:8960   */\n      dup4\n        /* \"#utility.yul\":8952:8967   */\n      and\n        /* \"#utility.yul\":8942:8967   */\n      swap2\n      pop\n        /* \"#utility.yul\":8855:8973   */\n      pop\n        /* \"#utility.yul\":8804:8973   */\n      swap3\n      swap2\n      pop\n      pop\n      jump\t// out\n        /* \"#utility.yul\":8978:9273   */\n    tag_89:\n        /* \"#utility.yul\":9054:9058   */\n      0x00\n        /* \"#utility.yul\":9200:9229   */\n      tag_199\n        /* \"#utility.yul\":9225:9228   */\n      dup4\n        /* \"#utility.yul\":9219:9223   */\n      dup4\n        /* \"#utility.yul\":9200:9229   */\n      tag_88\n      jump\t// in\n    tag_199:\n        /* \"#utility.yul\":9192:9229   */\n      swap2\n      pop\n        /* \"#utility.yul\":9262:9265   */\n      dup3\n        /* \"#utility.yul\":9259:9260   */\n      0x02\n        /* \"#utility.yul\":9255:9266   */\n      mul\n        /* \"#utility.yul\":9249:9253   */\n      dup3\n        /* \"#utility.yul\":9246:9267   */\n      or\n        /* \"#utility.yul\":9238:9267   */\n      swap1\n      pop\n        /* \"#utility.yul\":8978:9273   */\n      swap3\n      swap2\n      pop\n      pop\n      jump\t// out\n        /* \"#utility.yul\":9278:10673   */\n    tag_41:\n        /* \"#utility.yul\":9395:9432   */\n      tag_201\n        /* \"#utility.yul\":9428:9431   */\n      dup3\n        /* \"#utility.yul\":9395:9432   */\n      tag_67\n      jump\t// in\n    tag_201:\n        /* \"#utility.yul\":9497:9515   */\n      0xffffffffffffffff\n        /* \"#utility.yul\":9489:9495   */\n      dup2\n        /* \"#utility.yul\":9486:9516   */\n      gt\n        /* \"#utility.yul\":9483:9539   */\n      iszero\n      tag_202\n      jumpi\n        /* \"#utility.yul\":9519:9537   */\n      tag_203\n      tag_60\n      jump\t// in\n    tag_203:\n        /* \"#utility.yul\":9483:9539   */\n    tag_202:\n        /* \"#utility.yul\":9563:9601   */\n      tag_204\n        /* \"#utility.yul\":9595:9599   */\n      dup3\n        /* \"#utility.yul\":9589:9600   */\n      sload\n        /* \"#utility.yul\":9563:9601   */\n      tag_45\n      jump\t// in\n    tag_204:\n        /* \"#utility.yul\":9648:9715   */\n      tag_205\n        /* \"#utility.yul\":9708:9714   */\n      dup3\n        /* \"#utility.yul\":9700:9706   */\n      dup3\n        /* \"#utility.yul\":9694:9698   */\n      dup6\n        /* \"#utility.yul\":9648:9715   */\n      tag_86\n      jump\t// in\n    tag_205:\n        /* \"#utility.yul\":9742:9743   */\n      0x00\n        /* \"#utility.yul\":9766:9770   */\n      0x20\n        /* \"#utility.yul\":9753:9770   */\n      swap1\n      pop\n        /* \"#utility.yul\":9798:9800   */\n      0x1f\n        /* \"#utility.yul\":9790:9796   */\n      dup4\n        /* \"#utility.yul\":9787:9801   */\n      gt\n        /* \"#utility.yul\":9815:9816   */\n      0x01\n        /* \"#utility.yul\":9810:10428   */\n      dup2\n      eq\n      tag_207\n      jumpi\n        /* \"#utility.yul\":10472:10473   */\n      0x00\n        /* \"#utility.yul\":10489:10495   */\n      dup5\n        /* \"#utility.yul\":10486:10563   */\n      iszero\n      tag_208\n      jumpi\n        /* \"#utility.yul\":10538:10547   */\n      dup3\n        /* \"#utility.yul\":10533:10536   */\n      dup8\n        /* \"#utility.yul\":10529:10548   */\n      add\n        /* \"#utility.yul\":10523:10549   */\n      mload\n        /* \"#utility.yul\":10514:10549   */\n      swap1\n      pop\n        /* \"#utility.yul\":10486:10563   */\n    tag_208:\n        /* \"#utility.yul\":10589:10656   */\n      tag_209\n        /* \"#utility.yul\":10649:10655   */\n      dup6\n        /* \"#utility.yul\":10642:10647   */\n      dup3\n        /* \"#utility.yul\":10589:10656   */\n      tag_89\n      jump\t// in\n    tag_209:\n        /* \"#utility.yul\":10583:10587   */\n      dup7\n        /* \"#utility.yul\":10576:10657   */\n      sstore\n        /* \"#utility.yul\":10445:10667   */\n      pop\n        /* \"#utility.yul\":9780:10667   */\n      jump(tag_206)\n        /* \"#utility.yul\":9810:10428   */\n    tag_207:\n        /* \"#utility.yul\":9862:9866   */\n      0x1f\n        /* \"#utility.yul\":9858:9867   */\n      not\n        /* \"#utility.yul\":9850:9856   */\n      dup5\n        /* \"#utility.yul\":9846:9868   */\n      and\n        /* \"#utility.yul\":9896:9933   */\n      tag_210\n        /* \"#utility.yul\":9928:9932   */\n      dup7\n        /* \"#utility.yul\":9896:9933   */\n      tag_75\n      jump\t// in\n    tag_210:\n        /* \"#utility.yul\":9955:9956   */\n      0x00\n        /* \"#utility.yul\":9969:10177   */\n    tag_211:\n        /* \"#utility.yul\":9983:9990   */\n      dup3\n        /* \"#utility.yul\":9980:9981   */\n      dup2\n        /* \"#utility.yul\":9977:9991   */\n      lt\n        /* \"#utility.yul\":9969:10177   */\n      iszero\n      tag_213\n      jumpi\n        /* \"#utility.yul\":10062:10071   */\n      dup5\n        /* \"#utility.yul\":10057:10060   */\n      dup10\n        /* \"#utility.yul\":10053:10072   */\n      add\n        /* \"#utility.yul\":10047:10073   */\n      mload\n        /* \"#utility.yul\":10039:10045   */\n      dup3\n        /* \"#utility.yul\":10032:10074   */\n      sstore\n        /* \"#utility.yul\":10113:10114   */\n      0x01\n        /* \"#utility.yul\":10105:10111   */\n      dup3\n        /* \"#utility.yul\":10101:10115   */\n      add\n        /* \"#utility.yul\":10091:10115   */\n      swap2\n      pop\n        /* \"#utility.yul\":10160:10162   */\n      0x20\n        /* \"#utility.yul\":10149:10158   */\n      dup6\n        /* \"#utility.yul\":10145:10163   */\n      add\n        /* \"#utility.yul\":10132:10163   */\n      swap5\n      pop\n        /* \"#utility.yul\":10006:10010   */\n      0x20\n        /* \"#utility.yul\":10003:10004   */\n      dup2\n        /* \"#utility.yul\":9999:10011   */\n      add\n        /* \"#utility.yul\":9994:10011   */\n      swap1\n      pop\n        /* \"#utility.yul\":9969:10177   */\n      jump(tag_211)\n    tag_213:\n        /* \"#utility.yul\":10205:10211   */\n      dup7\n        /* \"#utility.yul\":10196:10203   */\n      dup4\n        /* \"#utility.yul\":10193:10212   */\n      lt\n        /* \"#utility.yul\":10190:10369   */\n      iszero\n      tag_214\n      jumpi\n        /* \"#utility.yul\":10263:10272   */\n      dup5\n        /* \"#utility.yul\":10258:10261   */\n      dup10\n        /* \"#utility.yul\":10254:10273   */\n      add\n        /* \"#utility.yul\":10248:10274   */\n      mload\n        /* \"#utility.yul\":10306:10354   */\n      tag_215\n        /* \"#utility.yul\":10348:10352   */\n      0x1f\n        /* \"#utility.yul\":10340:10346   */\n      dup10\n        /* \"#utility.yul\":10336:10353   */\n      and\n        /* \"#utility.yul\":10325:10334   */\n      dup3\n        /* \"#utility.yul\":10306:10354   */\n      tag_88\n      jump\t// in\n    tag_215:\n        /* \"#utility.yul\":10298:10304   */\n      dup4\n        /* \"#utility.yul\":10291:10355   */\n      sstore\n        /* \"#utility.yul\":10213:10369   */\n      pop\n        /* \"#utility.yul\":10190:10369   */\n    tag_214:\n        /* \"#utility.yul\":10415:10416   */\n      0x01\n        /* \"#utility.yul\":10411:10412   */\n      0x02\n        /* \"#utility.yul\":10403:10409   */\n      dup9\n        /* \"#utility.yul\":10399:10413   */\n      mul\n        /* \"#utility.yul\":10395:10417   */\n      add\n        /* \"#utility.yul\":10389:10393   */\n      dup9\n        /* \"#utility.yul\":10382:10418   */\n      sstore\n        /* \"#utility.yul\":9817:10428   */\n      pop\n      pop\n      pop\n        /* \"#utility.yul\":9780:10667   */\n    tag_206:\n      pop\n        /* \"#utility.yul\":9370:10673   */\n      pop\n      pop\n      pop\n        /* \"#utility.yul\":9278:10673   */\n      pop\n      pop\n      jump\t// out\n        /* \"#utility.yul\":10679:10859   */\n    tag_90:\n        /* \"#utility.yul\":10727:10804   */\n      0x4e487b7100000000000000000000000000000000000000000000000000000000\n        /* \"#utility.yul\":10724:10725   */\n      0x00\n        /* \"#utility.yul\":10717:10805   */\n      mstore\n        /* \"#utility.yul\":10824:10828   */\n      0x11\n        /* \"#utility.yul\":10821:10822   */\n      0x04\n        /* \"#utility.yul\":10814:10829   */\n      mstore\n        /* \"#utility.yul\":10848:10852   */\n      0x24\n        /* \"#utility.yul\":10845:10846   */\n      0x00\n        /* \"#utility.yul\":10838:10853   */\n      revert\n        /* \"#utility.yul\":10865:11056   */\n    tag_43:\n        /* \"#utility.yul\":10905:10908   */\n      0x00\n        /* \"#utility.yul\":10924:10944   */\n      tag_218\n        /* \"#utility.yul\":10942:10943   */\n      dup3\n        /* \"#utility.yul\":10924:10944   */\n      tag_71\n      jump\t// in\n    tag_218:\n        /* \"#utility.yul\":10919:10944   */\n      swap2\n      pop\n        /* \"#utility.yul\":10958:10978   */\n      tag_219\n        /* \"#utility.yul\":10976:10977   */\n      dup4\n        /* \"#utility.yul\":10958:10978   */\n      tag_71\n      jump\t// in\n    tag_219:\n        /* \"#utility.yul\":10953:10978   */\n      swap3\n      pop\n        /* \"#utility.yul\":11001:11002   */\n      dup3\n        /* \"#utility.yul\":10998:10999   */\n      dup3\n        /* \"#utility.yul\":10994:11003   */\n      add\n        /* \"#utility.yul\":10987:11003   */\n      swap1\n      pop\n        /* \"#utility.yul\":11022:11025   */\n      dup1\n        /* \"#utility.yul\":11019:11020   */\n      dup3\n        /* \"#utility.yul\":11016:11026   */\n      gt\n        /* \"#utility.yul\":11013:11049   */\n      iszero\n      tag_220\n      jumpi\n        /* \"#utility.yul\":11029:11047   */\n      tag_221\n      tag_90\n      jump\t// in\n    tag_221:\n        /* \"#utility.yul\":11013:11049   */\n    tag_220:\n        /* \"#utility.yul\":10865:11056   */\n      swap3\n      swap2\n      pop\n      pop\n      jump\t// out\n\n    auxdata: 0xa26469706673582212201075537fc164192293ee1f8f1a0d04d1961036008039cc2f38cfd8c067db93dc64736f6c634300081a0033\n}\n",
				"bytecode": {
					"linkReferences": {},
					"object": "6080604052348015600e575f80fd5b503360015f6101000a81548173ffffffffffffffffffffffffffffffffffffffff021916908373ffffffffffffffffffffffffffffffffffffffff1602179055506109388061005c5f395ff3fe608060405260043610610049575f3560e01c8063338ccd781461004d57806339f79d8114610069578063492bfa181461008557806361bc221a146100af5780638da5cb5b146100d9575b5f80fd5b61006760048036038101906100629190610352565b610103565b005b610083600480360381019061007e91906104b9565b6101a3565b005b348015610090575f80fd5b50610099610231565b6040516100a69190610560565b60405180910390f35b3480156100ba575f80fd5b506100c36102bd565b6040516100d09190610598565b60405180910390f35b3480156100e4575f80fd5b506100ed6102c2565b6040516100fa91906105c0565b60405180910390f35b678ac7230489e80000341061015b578073ffffffffffffffffffffffffffffffffffffffff166108fc3490811502906040515f60405180830381858888f19350505050158015610155573d5f803e3d5ffd5b506101a0565b3373ffffffffffffffffffffffffffffffffffffffff166108fc3490811502906040515f60405180830381858888f1935050505015801561019e573d5f803e3d5ffd5b505b50565b60015f9054906101000a900473ffffffffffffffffffffffffffffffffffffffff1673ffffffffffffffffffffffffffffffffffffffff163373ffffffffffffffffffffffffffffffffffffffff161480156102005750600a3410155b1561022e57806002908161021491906107d3565b5060015f8082825461022691906108cf565b925050819055505b50565b6002805461023e90610606565b80601f016020809104026020016040519081016040528092919081815260200182805461026a90610606565b80156102b55780601f1061028c576101008083540402835291602001916102b5565b820191905f5260205f20905b81548152906001019060200180831161029857829003601f168201915b505050505081565b5f5481565b60015f9054906101000a900473ffffffffffffffffffffffffffffffffffffffff1681565b5f604051905090565b5f80fd5b5f80fd5b5f73ffffffffffffffffffffffffffffffffffffffff82169050919050565b5f610321826102f8565b9050919050565b61033181610317565b811461033b575f80fd5b50565b5f8135905061034c81610328565b92915050565b5f60208284031215610367576103666102f0565b5b5f6103748482850161033e565b91505092915050565b5f80fd5b5f80fd5b5f601f19601f8301169050919050565b7f4e487b71000000000000000000000000000000000000000000000000000000005f52604160045260245ffd5b6103cb82610385565b810181811067ffffffffffffffff821117156103ea576103e9610395565b5b80604052505050565b5f6103fc6102e7565b905061040882826103c2565b919050565b5f67ffffffffffffffff82111561042757610426610395565b5b61043082610385565b9050602081019050919050565b828183375f83830152505050565b5f61045d6104588461040d565b6103f3565b90508281526020810184848401111561047957610478610381565b5b61048484828561043d565b509392505050565b5f82601f8301126104a05761049f61037d565b5b81356104b084826020860161044b565b91505092915050565b5f602082840312156104ce576104cd6102f0565b5b5f82013567ffffffffffffffff8111156104eb576104ea6102f4565b5b6104f78482850161048c565b91505092915050565b5f81519050919050565b5f82825260208201905092915050565b8281835e5f83830152505050565b5f61053282610500565b61053c818561050a565b935061054c81856020860161051a565b61055581610385565b840191505092915050565b5f6020820190508181035f8301526105788184610528565b905092915050565b5f819050919050565b61059281610580565b82525050565b5f6020820190506105ab5f830184610589565b92915050565b6105ba81610317565b82525050565b5f6020820190506105d35f8301846105b1565b92915050565b7f4e487b71000000000000000000000000000000000000000000000000000000005f52602260045260245ffd5b5f600282049050600182168061061d57607f821691505b6020821081036106305761062f6105d9565b5b50919050565b5f819050815f5260205f209050919050565b5f6020601f8301049050919050565b5f82821b905092915050565b5f600883026106927fffffffffffffffffffffffffffffffffffffffffffffffffffffffffffffffff82610657565b61069c8683610657565b95508019841693508086168417925050509392505050565b5f819050919050565b5f6106d76106d26106cd84610580565b6106b4565b610580565b9050919050565b5f819050919050565b6106f0836106bd565b6107046106fc826106de565b848454610663565b825550505050565b5f90565b61071861070c565b6107238184846106e7565b505050565b5b818110156107465761073b5f82610710565b600181019050610729565b5050565b601f82111561078b5761075c81610636565b61076584610648565b81016020851015610774578190505b61078861078085610648565b830182610728565b50505b505050565b5f82821c905092915050565b5f6107ab5f1984600802610790565b1980831691505092915050565b5f6107c3838361079c565b9150826002028217905092915050565b6107dc82610500565b67ffffffffffffffff8111156107f5576107f4610395565b5b6107ff8254610606565b61080a82828561074a565b5f60209050601f83116001811461083b575f8415610829578287015190505b61083385826107b8565b86555061089a565b601f19841661084986610636565b5f5b828110156108705784890151825560018201915060208501945060208101905061084b565b8683101561088d5784890151610889601f89168261079c565b8355505b6001600288020188555050505b505050505050565b7f4e487b71000000000000000000000000000000000000000000000000000000005f52601160045260245ffd5b5f6108d982610580565b91506108e483610580565b92508282019050808211156108fc576108fb6108a2565b5b9291505056fea26469706673582212201075537fc164192293ee1f8f1a0d04d1961036008039cc2f38cfd8c067db93dc64736f6c634300081a0033",
					"opcodes": "PUSH1 0x80 PUSH1 0x40 MSTORE CALLVALUE DUP1 ISZERO PUSH1 0xE JUMPI PUSH0 DUP1 REVERT JUMPDEST POP CALLER PUSH1 0x1 PUSH0 PUSH2 0x100 EXP DUP2 SLOAD DUP2 PUSH20 0xFFFFFFFFFFFFFFFFFFFFFFFFFFFFFFFFFFFFFFFF MUL NOT AND SWAP1 DUP4 PUSH20 0xFFFFFFFFFFFFFFFFFFFFFFFFFFFFFFFFFFFFFFFF AND MUL OR SWAP1 SSTORE POP PUSH2 0x938 DUP1 PUSH2 0x5C PUSH0 CODECOPY PUSH0 RETURN INVALID PUSH1 0x80 PUSH1 0x40 MSTORE PUSH1 0x4 CALLDATASIZE LT PUSH2 0x49 JUMPI PUSH0 CALLDATALOAD PUSH1 0xE0 SHR DUP1 PUSH4 0x338CCD78 EQ PUSH2 0x4D JUMPI DUP1 PUSH4 0x39F79D81 EQ PUSH2 0x69 JUMPI DUP1 PUSH4 0x492BFA18 EQ PUSH2 0x85 JUMPI DUP1 PUSH4 0x61BC221A EQ PUSH2 0xAF JUMPI DUP1 PUSH4 0x8DA5CB5B EQ PUSH2 0xD9 JUMPI JUMPDEST PUSH0 DUP1 REVERT JUMPDEST PUSH2 0x67 PUSH1 0x4 DUP1 CALLDATASIZE SUB DUP2 ADD SWAP1 PUSH2 0x62 SWAP2 SWAP1 PUSH2 0x352 JUMP JUMPDEST PUSH2 0x103 JUMP JUMPDEST STOP JUMPDEST PUSH2 0x83 PUSH1 0x4 DUP1 CALLDATASIZE SUB DUP2 ADD SWAP1 PUSH2 0x7E SWAP2 SWAP1 PUSH2 0x4B9 JUMP JUMPDEST PUSH2 0x1A3 JUMP JUMPDEST STOP JUMPDEST CALLVALUE DUP1 ISZERO PUSH2 0x90 JUMPI PUSH0 DUP1 REVERT JUMPDEST POP PUSH2 0x99 PUSH2 0x231 JUMP JUMPDEST PUSH1 0x40 MLOAD PUSH2 0xA6 SWAP2 SWAP1 PUSH2 0x560 JUMP JUMPDEST PUSH1 0x40 MLOAD DUP1 SWAP2 SUB SWAP1 RETURN JUMPDEST CALLVALUE DUP1 ISZERO PUSH2 0xBA JUMPI PUSH0 DUP1 REVERT JUMPDEST POP PUSH2 0xC3 PUSH2 0x2BD JUMP JUMPDEST PUSH1 0x40 MLOAD PUSH2 0xD0 SWAP2 SWAP1 PUSH2 0x598 JUMP JUMPDEST PUSH1 0x40 MLOAD DUP1 SWAP2 SUB SWAP1 RETURN JUMPDEST CALLVALUE DUP1 ISZERO PUSH2 0xE4 JUMPI PUSH0 DUP1 REVERT JUMPDEST POP PUSH2 0xED PUSH2 0x2C2 JUMP JUMPDEST PUSH1 0x40 MLOAD PUSH2 0xFA SWAP2 SWAP1 PUSH2 0x5C0 JUMP JUMPDEST PUSH1 0x40 MLOAD DUP1 SWAP2 SUB SWAP1 RETURN JUMPDEST PUSH8 0x8AC7230489E80000 CALLVALUE LT PUSH2 0x15B JUMPI DUP1 PUSH20 0xFFFFFFFFFFFFFFFFFFFFFFFFFFFFFFFFFFFFFFFF AND PUSH2 0x8FC CALLVALUE SWAP1 DUP2 ISZERO MUL SWAP1 PUSH1 0x40 MLOAD PUSH0 PUSH1 0x40 MLOAD DUP1 DUP4 SUB DUP2 DUP6 DUP9 DUP9 CALL SWAP4 POP POP POP POP ISZERO DUP1 ISZERO PUSH2 0x155 JUMPI RETURNDATASIZE PUSH0 DUP1 RETURNDATACOPY RETURNDATASIZE PUSH0 REVERT JUMPDEST POP PUSH2 0x1A0 JUMP JUMPDEST CALLER PUSH20 0xFFFFFFFFFFFFFFFFFFFFFFFFFFFFFFFFFFFFFFFF AND PUSH2 0x8FC CALLVALUE SWAP1 DUP2 ISZERO MUL SWAP1 PUSH1 0x40 MLOAD PUSH0 PUSH1 0x40 MLOAD DUP1 DUP4 SUB DUP2 DUP6 DUP9 DUP9 CALL SWAP4 POP POP POP POP ISZERO DUP1 ISZERO PUSH2 0x19E JUMPI RETURNDATASIZE PUSH0 DUP1 RETURNDATACOPY RETURNDATASIZE PUSH0 REVERT JUMPDEST POP JUMPDEST POP JUMP JUMPDEST PUSH1 0x1 PUSH0 SWAP1 SLOAD SWAP1 PUSH2 0x100 EXP SWAP1 DIV PUSH20 0xFFFFFFFFFFFFFFFFFFFFFFFFFFFFFFFFFFFFFFFF AND PUSH20 0xFFFFFFFFFFFFFFFFFFFFFFFFFFFFFFFFFFFFFFFF AND CALLER PUSH20 0xFFFFFFFFFFFFFFFFFFFFFFFFFFFFFFFFFFFFFFFF AND EQ DUP1 ISZERO PUSH2 0x200 JUMPI POP PUSH1 0xA CALLVALUE LT ISZERO JUMPDEST ISZERO PUSH2 0x22E JUMPI DUP1 PUSH1 0x2 SWAP1 DUP2 PUSH2 0x214 SWAP2 SWAP1 PUSH2 0x7D3 JUMP JUMPDEST POP PUSH1 0x1 PUSH0 DUP1 DUP3 DUP3 SLOAD PUSH2 0x226 SWAP2 SWAP1 PUSH2 0x8CF JUMP JUMPDEST SWAP3 POP POP DUP2 SWAP1 SSTORE POP JUMPDEST POP JUMP JUMPDEST PUSH1 0x2 DUP1 SLOAD PUSH2 0x23E SWAP1 PUSH2 0x606 JUMP JUMPDEST DUP1 PUSH1 0x1F ADD PUSH1 0x20 DUP1 SWAP2 DIV MUL PUSH1 0x20 ADD PUSH1 0x40 MLOAD SWAP1 DUP2 ADD PUSH1 0x40 MSTORE DUP1 SWAP3 SWAP2 SWAP1 DUP2 DUP2 MSTORE PUSH1 0x20 ADD DUP3 DUP1 SLOAD PUSH2 0x26A SWAP1 PUSH2 0x606 JUMP JUMPDEST DUP1 ISZERO PUSH2 0x2B5 JUMPI DUP1 PUSH1 0x1F LT PUSH2 0x28C JUMPI PUSH2 0x100 DUP1 DUP4 SLOAD DIV MUL DUP4 MSTORE SWAP2 PUSH1 0x20 ADD SWAP2 PUSH2 0x2B5 JUMP JUMPDEST DUP3 ADD SWAP2 SWAP1 PUSH0 MSTORE PUSH1 0x20 PUSH0 KECCAK256 SWAP1 JUMPDEST DUP2 SLOAD DUP2 MSTORE SWAP1 PUSH1 0x1 ADD SWAP1 PUSH1 0x20 ADD DUP1 DUP4 GT PUSH2 0x298 JUMPI DUP3 SWAP1 SUB PUSH1 0x1F AND DUP3 ADD SWAP2 JUMPDEST POP POP POP POP POP DUP2 JUMP JUMPDEST PUSH0 SLOAD DUP2 JUMP JUMPDEST PUSH1 0x1 PUSH0 SWAP1 SLOAD SWAP1 PUSH2 0x100 EXP SWAP1 DIV PUSH20 0xFFFFFFFFFFFFFFFFFFFFFFFFFFFFFFFFFFFFFFFF AND DUP2 JUMP JUMPDEST PUSH0 PUSH1 0x40 MLOAD SWAP1 POP SWAP1 JUMP JUMPDEST PUSH0 DUP1 REVERT JUMPDEST PUSH0 DUP1 REVERT JUMPDEST PUSH0 PUSH20 0xFFFFFFFFFFFFFFFFFFFFFFFFFFFFFFFFFFFFFFFF DUP3 AND SWAP1 POP SWAP2 SWAP1 POP JUMP JUMPDEST PUSH0 PUSH2 0x321 DUP3 PUSH2 0x2F8 JUMP JUMPDEST SWAP1 POP SWAP2 SWAP1 POP JUMP JUMPDEST PUSH2 0x331 DUP2 PUSH2 0x317 JUMP JUMPDEST DUP2 EQ PUSH2 0x33B JUMPI PUSH0 DUP1 REVERT JUMPDEST POP JUMP JUMPDEST PUSH0 DUP2 CALLDATALOAD SWAP1 POP PUSH2 0x34C DUP2 PUSH2 0x328 JUMP JUMPDEST SWAP3 SWAP2 POP POP JUMP JUMPDEST PUSH0 PUSH1 0x20 DUP3 DUP5 SUB SLT ISZERO PUSH2 0x367 JUMPI PUSH2 0x366 PUSH2 0x2F0 JUMP JUMPDEST JUMPDEST PUSH0 PUSH2 0x374 DUP5 DUP3 DUP6 ADD PUSH2 0x33E JUMP JUMPDEST SWAP2 POP POP SWAP3 SWAP2 POP POP JUMP JUMPDEST PUSH0 DUP1 REVERT JUMPDEST PUSH0 DUP1 REVERT JUMPDEST PUSH0 PUSH1 0x1F NOT PUSH1 0x1F DUP4 ADD AND SWAP1 POP SWAP2 SWAP1 POP JUMP JUMPDEST PUSH32 0x4E487B7100000000000000000000000000000000000000000000000000000000 PUSH0 MSTORE PUSH1 0x41 PUSH1 0x4 MSTORE PUSH1 0x24 PUSH0 REVERT JUMPDEST PUSH2 0x3CB DUP3 PUSH2 0x385 JUMP JUMPDEST DUP2 ADD DUP2 DUP2 LT PUSH8 0xFFFFFFFFFFFFFFFF DUP3 GT OR ISZERO PUSH2 0x3EA JUMPI PUSH2 0x3E9 PUSH2 0x395 JUMP JUMPDEST JUMPDEST DUP1 PUSH1 0x40 MSTORE POP POP POP JUMP JUMPDEST PUSH0 PUSH2 0x3FC PUSH2 0x2E7 JUMP JUMPDEST SWAP1 POP PUSH2 0x408 DUP3 DUP3 PUSH2 0x3C2 JUMP JUMPDEST SWAP2 SWAP1 POP JUMP JUMPDEST PUSH0 PUSH8 0xFFFFFFFFFFFFFFFF DUP3 GT ISZERO PUSH2 0x427 JUMPI PUSH2 0x426 PUSH2 0x395 JUMP JUMPDEST JUMPDEST PUSH2 0x430 DUP3 PUSH2 0x385 JUMP JUMPDEST SWAP1 POP PUSH1 0x20 DUP2 ADD SWAP1 POP SWAP2 SWAP1 POP JUMP JUMPDEST DUP3 DUP2 DUP4 CALLDATACOPY PUSH0 DUP4 DUP4 ADD MSTORE POP POP POP JUMP JUMPDEST PUSH0 PUSH2 0x45D PUSH2 0x458 DUP5 PUSH2 0x40D JUMP JUMPDEST PUSH2 0x3F3 JUMP JUMPDEST SWAP1 POP DUP3 DUP2 MSTORE PUSH1 0x20 DUP2 ADD DUP5 DUP5 DUP5 ADD GT ISZERO PUSH2 0x479 JUMPI PUSH2 0x478 PUSH2 0x381 JUMP JUMPDEST JUMPDEST PUSH2 0x484 DUP5 DUP3 DUP6 PUSH2 0x43D JUMP JUMPDEST POP SWAP4 SWAP3 POP POP POP JUMP JUMPDEST PUSH0 DUP3 PUSH1 0x1F DUP4 ADD SLT PUSH2 0x4A0 JUMPI PUSH2 0x49F PUSH2 0x37D JUMP JUMPDEST JUMPDEST DUP2 CALLDATALOAD PUSH2 0x4B0 DUP5 DUP3 PUSH1 0x20 DUP7 ADD PUSH2 0x44B JUMP JUMPDEST SWAP2 POP POP SWAP3 SWAP2 POP POP JUMP JUMPDEST PUSH0 PUSH1 0x20 DUP3 DUP5 SUB SLT ISZERO PUSH2 0x4CE JUMPI PUSH2 0x4CD PUSH2 0x2F0 JUMP JUMPDEST JUMPDEST PUSH0 DUP3 ADD CALLDATALOAD PUSH8 0xFFFFFFFFFFFFFFFF DUP2 GT ISZERO PUSH2 0x4EB JUMPI PUSH2 0x4EA PUSH2 0x2F4 JUMP JUMPDEST JUMPDEST PUSH2 0x4F7 DUP5 DUP3 DUP6 ADD PUSH2 0x48C JUMP JUMPDEST SWAP2 POP POP SWAP3 SWAP2 POP POP JUMP JUMPDEST PUSH0 DUP2 MLOAD SWAP1 POP SWAP2 SWAP1 POP JUMP JUMPDEST PUSH0 DUP3 DUP3 MSTORE PUSH1 0x20 DUP3 ADD SWAP1 POP SWAP3 SWAP2 POP POP JUMP JUMPDEST DUP3 DUP2 DUP4 MCOPY PUSH0 DUP4 DUP4 ADD MSTORE POP POP POP JUMP JUMPDEST PUSH0 PUSH2 0x532 DUP3 PUSH2 0x500 JUMP JUMPDEST PUSH2 0x53C DUP2 DUP6 PUSH2 0x50A JUMP JUMPDEST SWAP4 POP PUSH2 0x54C DUP2 DUP6 PUSH1 0x20 DUP7 ADD PUSH2 0x51A JUMP JUMPDEST PUSH2 0x555 DUP2 PUSH2 0x385 JUMP JUMPDEST DUP5 ADD SWAP2 POP POP SWAP3 SWAP2 POP POP JUMP JUMPDEST PUSH0 PUSH1 0x20 DUP3 ADD SWAP1 POP DUP2 DUP2 SUB PUSH0 DUP4 ADD MSTORE PUSH2 0x578 DUP2 DUP5 PUSH2 0x528 JUMP JUMPDEST SWAP1 POP SWAP3 SWAP2 POP POP JUMP JUMPDEST PUSH0 DUP2 SWAP1 POP SWAP2 SWAP1 POP JUMP JUMPDEST PUSH2 0x592 DUP2 PUSH2 0x580 JUMP JUMPDEST DUP3 MSTORE POP POP JUMP JUMPDEST PUSH0 PUSH1 0x20 DUP3 ADD SWAP1 POP PUSH2 0x5AB PUSH0 DUP4 ADD DUP5 PUSH2 0x589 JUMP JUMPDEST SWAP3 SWAP2 POP POP JUMP JUMPDEST PUSH2 0x5BA DUP2 PUSH2 0x317 JUMP JUMPDEST DUP3 MSTORE POP POP JUMP JUMPDEST PUSH0 PUSH1 0x20 DUP3 ADD SWAP1 POP PUSH2 0x5D3 PUSH0 DUP4 ADD DUP5 PUSH2 0x5B1 JUMP JUMPDEST SWAP3 SWAP2 POP POP JUMP JUMPDEST PUSH32 0x4E487B7100000000000000000000000000000000000000000000000000000000 PUSH0 MSTORE PUSH1 0x22 PUSH1 0x4 MSTORE PUSH1 0x24 PUSH0 REVERT JUMPDEST PUSH0 PUSH1 0x2 DUP3 DIV SWAP1 POP PUSH1 0x1 DUP3 AND DUP1 PUSH2 0x61D JUMPI PUSH1 0x7F DUP3 AND SWAP2 POP JUMPDEST PUSH1 0x20 DUP3 LT DUP2 SUB PUSH2 0x630 JUMPI PUSH2 0x62F PUSH2 0x5D9 JUMP JUMPDEST JUMPDEST POP SWAP2 SWAP1 POP JUMP JUMPDEST PUSH0 DUP2 SWAP1 POP DUP2 PUSH0 MSTORE PUSH1 0x20 PUSH0 KECCAK256 SWAP1 POP SWAP2 SWAP1 POP JUMP JUMPDEST PUSH0 PUSH1 0x20 PUSH1 0x1F DUP4 ADD DIV SWAP1 POP SWAP2 SWAP1 POP JUMP JUMPDEST PUSH0 DUP3 DUP3 SHL SWAP1 POP SWAP3 SWAP2 POP POP JUMP JUMPDEST PUSH0 PUSH1 0x8 DUP4 MUL PUSH2 0x692 PUSH32 0xFFFFFFFFFFFFFFFFFFFFFFFFFFFFFFFFFFFFFFFFFFFFFFFFFFFFFFFFFFFFFFFF DUP3 PUSH2 0x657 JUMP JUMPDEST PUSH2 0x69C DUP7 DUP4 PUSH2 0x657 JUMP JUMPDEST SWAP6 POP DUP1 NOT DUP5 AND SWAP4 POP DUP1 DUP7 AND DUP5 OR SWAP3 POP POP POP SWAP4 SWAP3 POP POP POP JUMP JUMPDEST PUSH0 DUP2 SWAP1 POP SWAP2 SWAP1 POP JUMP JUMPDEST PUSH0 PUSH2 0x6D7 PUSH2 0x6D2 PUSH2 0x6CD DUP5 PUSH2 0x580 JUMP JUMPDEST PUSH2 0x6B4 JUMP JUMPDEST PUSH2 0x580 JUMP JUMPDEST SWAP1 POP SWAP2 SWAP1 POP JUMP JUMPDEST PUSH0 DUP2 SWAP1 POP SWAP2 SWAP1 POP JUMP JUMPDEST PUSH2 0x6F0 DUP4 PUSH2 0x6BD JUMP JUMPDEST PUSH2 0x704 PUSH2 0x6FC DUP3 PUSH2 0x6DE JUMP JUMPDEST DUP5 DUP5 SLOAD PUSH2 0x663 JUMP JUMPDEST DUP3 SSTORE POP POP POP POP JUMP JUMPDEST PUSH0 SWAP1 JUMP JUMPDEST PUSH2 0x718 PUSH2 0x70C JUMP JUMPDEST PUSH2 0x723 DUP2 DUP5 DUP5 PUSH2 0x6E7 JUMP JUMPDEST POP POP POP JUMP JUMPDEST JUMPDEST DUP2 DUP2 LT ISZERO PUSH2 0x746 JUMPI PUSH2 0x73B PUSH0 DUP3 PUSH2 0x710 JUMP JUMPDEST PUSH1 0x1 DUP2 ADD SWAP1 POP PUSH2 0x729 JUMP JUMPDEST POP POP JUMP JUMPDEST PUSH1 0x1F DUP3 GT ISZERO PUSH2 0x78B JUMPI PUSH2 0x75C DUP2 PUSH2 0x636 JUMP JUMPDEST PUSH2 0x765 DUP5 PUSH2 0x648 JUMP JUMPDEST DUP2 ADD PUSH1 0x20 DUP6 LT ISZERO PUSH2 0x774 JUMPI DUP2 SWAP1 POP JUMPDEST PUSH2 0x788 PUSH2 0x780 DUP6 PUSH2 0x648 JUMP JUMPDEST DUP4 ADD DUP3 PUSH2 0x728 JUMP JUMPDEST POP POP JUMPDEST POP POP POP JUMP JUMPDEST PUSH0 DUP3 DUP3 SHR SWAP1 POP SWAP3 SWAP2 POP POP JUMP JUMPDEST PUSH0 PUSH2 0x7AB PUSH0 NOT DUP5 PUSH1 0x8 MUL PUSH2 0x790 JUMP JUMPDEST NOT DUP1 DUP4 AND SWAP2 POP POP SWAP3 SWAP2 POP POP JUMP JUMPDEST PUSH0 PUSH2 0x7C3 DUP4 DUP4 PUSH2 0x79C JUMP JUMPDEST SWAP2 POP DUP3 PUSH1 0x2 MUL DUP3 OR SWAP1 POP SWAP3 SWAP2 POP POP JUMP JUMPDEST PUSH2 0x7DC DUP3 PUSH2 0x500 JUMP JUMPDEST PUSH8 0xFFFFFFFFFFFFFFFF DUP2 GT ISZERO PUSH2 0x7F5 JUMPI PUSH2 0x7F4 PUSH2 0x395 JUMP JUMPDEST JUMPDEST PUSH2 0x7FF DUP3 SLOAD PUSH2 0x606 JUMP JUMPDEST PUSH2 0x80A DUP3 DUP3 DUP6 PUSH2 0x74A JUMP JUMPDEST PUSH0 PUSH1 0x20 SWAP1 POP PUSH1 0x1F DUP4 GT PUSH1 0x1 DUP2 EQ PUSH2 0x83B JUMPI PUSH0 DUP5 ISZERO PUSH2 0x829 JUMPI DUP3 DUP8 ADD MLOAD SWAP1 POP JUMPDEST PUSH2 0x833 DUP6 DUP3 PUSH2 0x7B8 JUMP JUMPDEST DUP7 SSTORE POP PUSH2 0x89A JUMP JUMPDEST PUSH1 0x1F NOT DUP5 AND PUSH2 0x849 DUP7 PUSH2 0x636 JUMP JUMPDEST PUSH0 JUMPDEST DUP3 DUP2 LT ISZERO PUSH2 0x870 JUMPI DUP5 DUP10 ADD MLOAD DUP3 SSTORE PUSH1 0x1 DUP3 ADD SWAP2 POP PUSH1 0x20 DUP6 ADD SWAP5 POP PUSH1 0x20 DUP2 ADD SWAP1 POP PUSH2 0x84B JUMP JUMPDEST DUP7 DUP4 LT ISZERO PUSH2 0x88D JUMPI DUP5 DUP10 ADD MLOAD PUSH2 0x889 PUSH1 0x1F DUP10 AND DUP3 PUSH2 0x79C JUMP JUMPDEST DUP4 SSTORE POP JUMPDEST PUSH1 0x1 PUSH1 0x2 DUP9 MUL ADD DUP9 SSTORE POP POP POP JUMPDEST POP POP POP POP POP POP JUMP JUMPDEST PUSH32 0x4E487B7100000000000000000000000000000000000000000000000000000000 PUSH0 MSTORE PUSH1 0x11 PUSH1 0x4 MSTORE PUSH1 0x24 PUSH0 REVERT JUMPDEST PUSH0 PUSH2 0x8D9 DUP3 PUSH2 0x580 JUMP JUMPDEST SWAP2 POP PUSH2 0x8E4 DUP4 PUSH2 0x580 JUMP JUMPDEST SWAP3 POP DUP3 DUP3 ADD SWAP1 POP DUP1 DUP3 GT ISZERO PUSH2 0x8FC JUMPI PUSH2 0x8FB PUSH2 0x8A2 JUMP JUMPDEST JUMPDEST SWAP3 SWAP2 POP POP JUMP INVALID LOG2 PUSH5 0x6970667358 0x22 SLT KECCAK256 LT PUSH22 0x537FC164192293EE1F8F1A0D04D1961036008039CC2F CODESIZE 0xCF 0xD8 0xC0 PUSH8 0xDB93DC64736F6C63 NUMBER STOP ADDMOD BYTE STOP CALLER "
				},
				"gasEstimates": {
					"creation": {
						"codeDepositCost": "472000",
						"executionCost": "24768",
						"totalCost": "496768"
					},
					"external": {
						"counter()": "2468",
						"myString()": "infinite",
						"owner()": "2574",
						"sendMoney(address)": "infinite",
						"updateMess(string)": "infinite"
					}
				},
				"methodIdentifiers": {
					"counter()": "61bc221a",
					"myString()": "492bfa18",
					"owner()": "8da5cb5b",
					"sendMoney(address)": "338ccd78",
					"updateMess(string)": "39f79d81"
				}
			},
			"storageLayout": {
				"storage": [
					{
						"astId": 3,
						"contract": "contracts/MessengerContract.sol:messenger",
						"label": "counter",
						"offset": 0,
						"slot": "0",
						"type": "t_uint256"
					},
					{
						"astId": 5,
						"contract": "contracts/MessengerContract.sol:messenger",
						"label": "owner",
						"offset": 0,
						"slot": "1",
						"type": "t_address"
					},
					{
						"astId": 7,
						"contract": "contracts/MessengerContract.sol:messenger",
						"label": "myString",
						"offset": 0,
						"slot": "2",
						"type": "t_string_storage"
					}
				],
				"types": {
					"t_address": {
						"encoding": "inplace",
						"label": "address",
						"numberOfBytes": "20"
					},
					"t_string_storage": {
						"encoding": "bytes",
						"label": "string",
						"numberOfBytes": "32"
					},
					"t_uint256": {
						"encoding": "inplace",
						"label": "uint256",
						"numberOfBytes": "32"
					}
				}
			},
			"userdoc": {
				"kind": "user",
				"methods": {},
				"version": 1
			}
		}
	}
}